{
	"calc.sol": {
		"Calculator": {
			"abi": [
				{
					"constant": false,
					"inputs": [
						{
							"name": "numerator",
							"type": "uint256"
						},
						{
							"name": "denominator",
							"type": "uint256"
						},
						{
							"name": "precision",
							"type": "uint256"
						}
					],
					"name": "Divide",
					"outputs": [
						{
							"name": "",
							"type": "uint256"
						}
					],
					"payable": false,
					"stateMutability": "nonpayable",
					"type": "function"
				},
				{
					"constant": false,
					"inputs": [
						{
							"name": "a",
							"type": "int256"
						},
						{
							"name": "b",
							"type": "int256"
						}
					],
					"name": "Subtract",
					"outputs": [
						{
							"name": "",
							"type": "int256"
						}
					],
					"payable": false,
					"stateMutability": "nonpayable",
					"type": "function"
				},
				{
					"constant": false,
					"inputs": [
						{
							"name": "a",
							"type": "int256"
						},
						{
							"name": "b",
							"type": "int256"
						}
					],
					"name": "Add",
					"outputs": [
						{
							"name": "",
							"type": "int256"
						}
					],
					"payable": false,
					"stateMutability": "nonpayable",
					"type": "function"
				},
				{
					"constant": false,
					"inputs": [
						{
							"name": "a",
							"type": "int256"
						},
						{
							"name": "b",
							"type": "int256"
						}
					],
					"name": "Multiply",
					"outputs": [
						{
							"name": "",
							"type": "int256"
						}
					],
					"payable": false,
					"stateMutability": "nonpayable",
					"type": "function"
				},
				{
					"constant": false,
					"inputs": [
						{
							"name": "base",
							"type": "uint256"
						},
						{
							"name": "exponent",
							"type": "uint256"
						}
					],
					"name": "Exponent",
					"outputs": [
						{
							"name": "",
							"type": "uint256"
						}
					],
					"payable": false,
					"stateMutability": "nonpayable",
					"type": "function"
				}
			],
			"devdoc": {
				"methods": {}
			},
			"evm": {
				"assembly": "    /* \"calc.sol\":28:879  contract Calculator {\r... */\n  mstore(0x40, 0x80)\n    /* \"calc.sol\":85:86  0 */\n  0x0\n    /* \"calc.sol\":61:86  int private lastvalue = 0 */\n  dup1\n  sstore\n    /* \"calc.sol\":122:123  0 */\n  0x0\n    /* \"calc.sol\":93:123  uint private lastuintvalue = 0 */\n  0x1\n  sstore\n    /* \"calc.sol\":28:879  contract Calculator {\r... */\n  callvalue\n    /* \"--CODEGEN--\":8:17   */\n  dup1\n    /* \"--CODEGEN--\":5:7   */\n  iszero\n  tag_1\n  jumpi\n    /* \"--CODEGEN--\":30:31   */\n  0x0\n    /* \"--CODEGEN--\":27:28   */\n  dup1\n    /* \"--CODEGEN--\":20:32   */\n  revert\n    /* \"--CODEGEN--\":5:7   */\ntag_1:\n    /* \"calc.sol\":28:879  contract Calculator {\r... */\n  pop\n  dataSize(sub_0)\n  dup1\n  dataOffset(sub_0)\n  0x0\n  codecopy\n  0x0\n  return\nstop\n\nsub_0: assembly {\n        /* \"calc.sol\":28:879  contract Calculator {\r... */\n      mstore(0x40, 0x80)\n      jumpi(tag_1, lt(calldatasize, 0x4))\n      calldataload(0x0)\n      0x100000000000000000000000000000000000000000000000000000000\n      swap1\n      div\n      0xffffffff\n      and\n      dup1\n      0x2c7ddc0a\n      eq\n      tag_2\n      jumpi\n      dup1\n      0x3e21f396\n      eq\n      tag_3\n      jumpi\n      dup1\n      0x830fb67c\n      eq\n      tag_4\n      jumpi\n      dup1\n      0xa062519d\n      eq\n      tag_5\n      jumpi\n      dup1\n      0xa0aaf05e\n      eq\n      tag_6\n      jumpi\n    tag_1:\n      0x0\n      dup1\n      revert\n        /* \"calc.sol\":502:721  function Divide(uint numerator, uint denominator, uint precision) public returns (uint){\r... */\n    tag_2:\n      callvalue\n        /* \"--CODEGEN--\":8:17   */\n      dup1\n        /* \"--CODEGEN--\":5:7   */\n      iszero\n      tag_7\n      jumpi\n        /* \"--CODEGEN--\":30:31   */\n      0x0\n        /* \"--CODEGEN--\":27:28   */\n      dup1\n        /* \"--CODEGEN--\":20:32   */\n      revert\n        /* \"--CODEGEN--\":5:7   */\n    tag_7:\n        /* \"calc.sol\":502:721  function Divide(uint numerator, uint denominator, uint precision) public returns (uint){\r... */\n      pop\n      tag_8\n      0x4\n      dup1\n      calldatasize\n      sub\n      dup2\n      add\n      swap1\n      dup1\n      dup1\n      calldataload\n      swap1\n      0x20\n      add\n      swap1\n      swap3\n      swap2\n      swap1\n      dup1\n      calldataload\n      swap1\n      0x20\n      add\n      swap1\n      swap3\n      swap2\n      swap1\n      dup1\n      calldataload\n      swap1\n      0x20\n      add\n      swap1\n      swap3\n      swap2\n      swap1\n      pop\n      pop\n      pop\n      jump(tag_9)\n    tag_8:\n      mload(0x40)\n      dup1\n      dup3\n      dup2\n      mstore\n      0x20\n      add\n      swap2\n      pop\n      pop\n      mload(0x40)\n      dup1\n      swap2\n      sub\n      swap1\n      return\n        /* \"calc.sol\":255:371  function Subtract(int a, int b) public returns (int) {\r... */\n    tag_3:\n      callvalue\n        /* \"--CODEGEN--\":8:17   */\n      dup1\n        /* \"--CODEGEN--\":5:7   */\n      iszero\n      tag_10\n      jumpi\n        /* \"--CODEGEN--\":30:31   */\n      0x0\n        /* \"--CODEGEN--\":27:28   */\n      dup1\n        /* \"--CODEGEN--\":20:32   */\n      revert\n        /* \"--CODEGEN--\":5:7   */\n    tag_10:\n        /* \"calc.sol\":255:371  function Subtract(int a, int b) public returns (int) {\r... */\n      pop\n      tag_11\n      0x4\n      dup1\n      calldatasize\n      sub\n      dup2\n      add\n      swap1\n      dup1\n      dup1\n      calldataload\n      swap1\n      0x20\n      add\n      swap1\n      swap3\n      swap2\n      swap1\n      dup1\n      calldataload\n      swap1\n      0x20\n      add\n      swap1\n      swap3\n      swap2\n      swap1\n      pop\n      pop\n      pop\n      jump(tag_12)\n    tag_11:\n      mload(0x40)\n      dup1\n      dup3\n      dup2\n      mstore\n      0x20\n      add\n      swap2\n      pop\n      pop\n      mload(0x40)\n      dup1\n      swap2\n      sub\n      swap1\n      return\n        /* \"calc.sol\":132:243  function Add(int a, int b) public returns (int) {\r... */\n    tag_4:\n      callvalue\n        /* \"--CODEGEN--\":8:17   */\n      dup1\n        /* \"--CODEGEN--\":5:7   */\n      iszero\n      tag_13\n      jumpi\n        /* \"--CODEGEN--\":30:31   */\n      0x0\n        /* \"--CODEGEN--\":27:28   */\n      dup1\n        /* \"--CODEGEN--\":20:32   */\n      revert\n        /* \"--CODEGEN--\":5:7   */\n    tag_13:\n        /* \"calc.sol\":132:243  function Add(int a, int b) public returns (int) {\r... */\n      pop\n      tag_14\n      0x4\n      dup1\n      calldatasize\n      sub\n      dup2\n      add\n      swap1\n      dup1\n      dup1\n      calldataload\n      swap1\n      0x20\n      add\n      swap1\n      swap3\n      swap2\n      swap1\n      dup1\n      calldataload\n      swap1\n      0x20\n      add\n      swap1\n      swap3\n      swap2\n      swap1\n      pop\n      pop\n      pop\n      jump(tag_15)\n    tag_14:\n      mload(0x40)\n      dup1\n      dup3\n      dup2\n      mstore\n      0x20\n      add\n      swap2\n      pop\n      pop\n      mload(0x40)\n      dup1\n      swap2\n      sub\n      swap1\n      return\n        /* \"calc.sol\":379:494  function Multiply(int a, int b) public returns (int){\r... */\n    tag_5:\n      callvalue\n        /* \"--CODEGEN--\":8:17   */\n      dup1\n        /* \"--CODEGEN--\":5:7   */\n      iszero\n      tag_16\n      jumpi\n        /* \"--CODEGEN--\":30:31   */\n      0x0\n        /* \"--CODEGEN--\":27:28   */\n      dup1\n        /* \"--CODEGEN--\":20:32   */\n      revert\n        /* \"--CODEGEN--\":5:7   */\n    tag_16:\n        /* \"calc.sol\":379:494  function Multiply(int a, int b) public returns (int){\r... */\n      pop\n      tag_17\n      0x4\n      dup1\n      calldatasize\n      sub\n      dup2\n      add\n      swap1\n      dup1\n      dup1\n      calldataload\n      swap1\n      0x20\n      add\n      swap1\n      swap3\n      swap2\n      swap1\n      dup1\n      calldataload\n      swap1\n      0x20\n      add\n      swap1\n      swap3\n      swap2\n      swap1\n      pop\n      pop\n      pop\n      jump(tag_18)\n    tag_17:\n      mload(0x40)\n      dup1\n      dup3\n      dup2\n      mstore\n      0x20\n      add\n      swap2\n      pop\n      pop\n      mload(0x40)\n      dup1\n      swap2\n      sub\n      swap1\n      return\n        /* \"calc.sol\":729:876  function Exponent(uint base, uint exponent) public returns (uint){\r... */\n    tag_6:\n      callvalue\n        /* \"--CODEGEN--\":8:17   */\n      dup1\n        /* \"--CODEGEN--\":5:7   */\n      iszero\n      tag_19\n      jumpi\n        /* \"--CODEGEN--\":30:31   */\n      0x0\n        /* \"--CODEGEN--\":27:28   */\n      dup1\n        /* \"--CODEGEN--\":20:32   */\n      revert\n        /* \"--CODEGEN--\":5:7   */\n    tag_19:\n        /* \"calc.sol\":729:876  function Exponent(uint base, uint exponent) public returns (uint){\r... */\n      pop\n      tag_20\n      0x4\n      dup1\n      calldatasize\n      sub\n      dup2\n      add\n      swap1\n      dup1\n      dup1\n      calldataload\n      swap1\n      0x20\n      add\n      swap1\n      swap3\n      swap2\n      swap1\n      dup1\n      calldataload\n      swap1\n      0x20\n      add\n      swap1\n      swap3\n      swap2\n      swap1\n      pop\n      pop\n      pop\n      jump(tag_21)\n    tag_20:\n      mload(0x40)\n      dup1\n      dup3\n      dup2\n      mstore\n      0x20\n      add\n      swap2\n      pop\n      pop\n      mload(0x40)\n      dup1\n      swap2\n      sub\n      swap1\n      return\n        /* \"calc.sol\":502:721  function Divide(uint numerator, uint denominator, uint precision) public returns (uint){\r... */\n    tag_9:\n        /* \"calc.sol\":584:588  uint */\n      0x0\n        /* \"calc.sol\":679:681  10 */\n      0xa\n        /* \"calc.sol\":671:672  5 */\n      0x5\n        /* \"calc.sol\":657:668  denominator */\n      dup5\n        /* \"calc.sol\":653:654  1 */\n      0x1\n        /* \"calc.sol\":643:652  precision */\n      dup6\n        /* \"calc.sol\":643:654  precision+1 */\n      add\n        /* \"calc.sol\":633:635  10 */\n      0xa\n        /* \"calc.sol\":628:655  uint(10)**uint(precision+1) */\n      exp\n        /* \"calc.sol\":617:626  numerator */\n      dup8\n        /* \"calc.sol\":617:656  numerator*(uint(10)**uint(precision+1)) */\n      mul\n        /* \"calc.sol\":617:668  numerator*(uint(10)**uint(precision+1))/denominator */\n      dup2\n      iszero\n      iszero\n      tag_23\n      jumpi\n      invalid\n    tag_23:\n      div\n        /* \"calc.sol\":617:672  numerator*(uint(10)**uint(precision+1))/denominator + 5 */\n      add\n        /* \"calc.sol\":616:682  (numerator*(uint(10)**uint(precision+1))/denominator + 5)/uint(10) */\n      dup2\n      iszero\n      iszero\n      tag_24\n      jumpi\n      invalid\n    tag_24:\n      div\n        /* \"calc.sol\":600:613  lastuintvalue */\n      0x1\n        /* \"calc.sol\":600:682  lastuintvalue = (numerator*(uint(10)**uint(precision+1))/denominator + 5)/uint(10) */\n      dup2\n      swap1\n      sstore\n      pop\n        /* \"calc.sol\":700:713  lastuintvalue */\n      sload(0x1)\n        /* \"calc.sol\":693:713  return lastuintvalue */\n      swap1\n      pop\n        /* \"calc.sol\":502:721  function Divide(uint numerator, uint denominator, uint precision) public returns (uint){\r... */\n      swap4\n      swap3\n      pop\n      pop\n      pop\n      jump\t// out\n        /* \"calc.sol\":255:371  function Subtract(int a, int b) public returns (int) {\r... */\n    tag_12:\n        /* \"calc.sol\":303:306  int */\n      0x0\n        /* \"calc.sol\":335:336  b */\n      dup2\n        /* \"calc.sol\":331:332  a */\n      dup4\n        /* \"calc.sol\":331:336  a - b */\n      sub\n        /* \"calc.sol\":319:328  lastvalue */\n      0x0\n        /* \"calc.sol\":319:336  lastvalue = a - b */\n      dup2\n      swap1\n      sstore\n      pop\n        /* \"calc.sol\":354:363  lastvalue */\n      sload(0x0)\n        /* \"calc.sol\":347:363  return lastvalue */\n      swap1\n      pop\n        /* \"calc.sol\":255:371  function Subtract(int a, int b) public returns (int) {\r... */\n      swap3\n      swap2\n      pop\n      pop\n      jump\t// out\n        /* \"calc.sol\":132:243  function Add(int a, int b) public returns (int) {\r... */\n    tag_15:\n        /* \"calc.sol\":175:178  int */\n      0x0\n        /* \"calc.sol\":207:208  b */\n      dup2\n        /* \"calc.sol\":203:204  a */\n      dup4\n        /* \"calc.sol\":203:208  a + b */\n      add\n        /* \"calc.sol\":191:200  lastvalue */\n      0x0\n        /* \"calc.sol\":191:208  lastvalue = a + b */\n      dup2\n      swap1\n      sstore\n      pop\n        /* \"calc.sol\":226:235  lastvalue */\n      sload(0x0)\n        /* \"calc.sol\":219:235  return lastvalue */\n      swap1\n      pop\n        /* \"calc.sol\":132:243  function Add(int a, int b) public returns (int) {\r... */\n      swap3\n      swap2\n      pop\n      pop\n      jump\t// out\n        /* \"calc.sol\":379:494  function Multiply(int a, int b) public returns (int){\r... */\n    tag_18:\n        /* \"calc.sol\":427:430  int */\n      0x0\n        /* \"calc.sol\":458:459  b */\n      dup2\n        /* \"calc.sol\":454:455  a */\n      dup4\n        /* \"calc.sol\":454:459  a * b */\n      mul\n        /* \"calc.sol\":442:451  lastvalue */\n      0x0\n        /* \"calc.sol\":442:459  lastvalue = a * b */\n      dup2\n      swap1\n      sstore\n      pop\n        /* \"calc.sol\":477:486  lastvalue */\n      sload(0x0)\n        /* \"calc.sol\":470:486  return lastvalue */\n      swap1\n      pop\n        /* \"calc.sol\":379:494  function Multiply(int a, int b) public returns (int){\r... */\n      swap3\n      swap2\n      pop\n      pop\n      jump\t// out\n        /* \"calc.sol\":729:876  function Exponent(uint base, uint exponent) public returns (uint){\r... */\n    tag_21:\n        /* \"calc.sol\":789:793  uint */\n      0x0\n        /* \"calc.sol\":829:837  exponent */\n      dup2\n        /* \"calc.sol\":821:825  base */\n      dup4\n        /* \"calc.sol\":821:837  base ** exponent */\n      exp\n        /* \"calc.sol\":805:818  lastuintvalue */\n      0x1\n        /* \"calc.sol\":805:837  lastuintvalue = base ** exponent */\n      dup2\n      swap1\n      sstore\n      pop\n        /* \"calc.sol\":855:868  lastuintvalue */\n      sload(0x1)\n        /* \"calc.sol\":848:868  return lastuintvalue */\n      swap1\n      pop\n        /* \"calc.sol\":729:876  function Exponent(uint base, uint exponent) public returns (uint){\r... */\n      swap3\n      swap2\n      pop\n      pop\n      jump\t// out\n\n    auxdata: 0xa165627a7a72305820d15d6d7b578aa36bf478d9d3b6fe4066eeaf0f4f41b10756d6c51306f83a851d0029\n}\n",
				"bytecode": {
					"linkReferences": {},
					"object": "608060405260008055600060015534801561001957600080fd5b506102ae806100296000396000f30060806040526004361061006d576000357c0100000000000000000000000000000000000000000000000000000000900463ffffffff1680632c7ddc0a146100725780633e21f396146100c7578063830fb67c14610112578063a062519d1461015d578063a0aaf05e146101a8575b600080fd5b34801561007e57600080fd5b506100b16004803603810190808035906020019092919080359060200190929190803590602001909291905050506101f3565b6040518082815260200191505060405180910390f35b3480156100d357600080fd5b506100fc600480360381019080803590602001909291908035906020019092919050505061022a565b6040518082815260200191505060405180910390f35b34801561011e57600080fd5b506101476004803603810190808035906020019092919080359060200190929190505050610240565b6040518082815260200191505060405180910390f35b34801561016957600080fd5b506101926004803603810190808035906020019092919080359060200190929190505050610256565b6040518082815260200191505060405180910390f35b3480156101b457600080fd5b506101dd600480360381019080803590602001909291908035906020019092919050505061026c565b6040518082815260200191505060405180910390f35b6000600a60058460018501600a0a870281151561020c57fe5b040181151561021757fe5b0460018190555060015490509392505050565b6000818303600081905550600054905092915050565b6000818301600081905550600054905092915050565b6000818302600081905550600054905092915050565b600081830a6001819055506001549050929150505600a165627a7a72305820d15d6d7b578aa36bf478d9d3b6fe4066eeaf0f4f41b10756d6c51306f83a851d0029",
					"opcodes": "PUSH1 0x80 PUSH1 0x40 MSTORE PUSH1 0x0 DUP1 SSTORE PUSH1 0x0 PUSH1 0x1 SSTORE CALLVALUE DUP1 ISZERO PUSH2 0x19 JUMPI PUSH1 0x0 DUP1 REVERT JUMPDEST POP PUSH2 0x2AE DUP1 PUSH2 0x29 PUSH1 0x0 CODECOPY PUSH1 0x0 RETURN STOP PUSH1 0x80 PUSH1 0x40 MSTORE PUSH1 0x4 CALLDATASIZE LT PUSH2 0x6D JUMPI PUSH1 0x0 CALLDATALOAD PUSH29 0x100000000000000000000000000000000000000000000000000000000 SWAP1 DIV PUSH4 0xFFFFFFFF AND DUP1 PUSH4 0x2C7DDC0A EQ PUSH2 0x72 JUMPI DUP1 PUSH4 0x3E21F396 EQ PUSH2 0xC7 JUMPI DUP1 PUSH4 0x830FB67C EQ PUSH2 0x112 JUMPI DUP1 PUSH4 0xA062519D EQ PUSH2 0x15D JUMPI DUP1 PUSH4 0xA0AAF05E EQ PUSH2 0x1A8 JUMPI JUMPDEST PUSH1 0x0 DUP1 REVERT JUMPDEST CALLVALUE DUP1 ISZERO PUSH2 0x7E JUMPI PUSH1 0x0 DUP1 REVERT JUMPDEST POP PUSH2 0xB1 PUSH1 0x4 DUP1 CALLDATASIZE SUB DUP2 ADD SWAP1 DUP1 DUP1 CALLDATALOAD SWAP1 PUSH1 0x20 ADD SWAP1 SWAP3 SWAP2 SWAP1 DUP1 CALLDATALOAD SWAP1 PUSH1 0x20 ADD SWAP1 SWAP3 SWAP2 SWAP1 DUP1 CALLDATALOAD SWAP1 PUSH1 0x20 ADD SWAP1 SWAP3 SWAP2 SWAP1 POP POP POP PUSH2 0x1F3 JUMP JUMPDEST PUSH1 0x40 MLOAD DUP1 DUP3 DUP2 MSTORE PUSH1 0x20 ADD SWAP2 POP POP PUSH1 0x40 MLOAD DUP1 SWAP2 SUB SWAP1 RETURN JUMPDEST CALLVALUE DUP1 ISZERO PUSH2 0xD3 JUMPI PUSH1 0x0 DUP1 REVERT JUMPDEST POP PUSH2 0xFC PUSH1 0x4 DUP1 CALLDATASIZE SUB DUP2 ADD SWAP1 DUP1 DUP1 CALLDATALOAD SWAP1 PUSH1 0x20 ADD SWAP1 SWAP3 SWAP2 SWAP1 DUP1 CALLDATALOAD SWAP1 PUSH1 0x20 ADD SWAP1 SWAP3 SWAP2 SWAP1 POP POP POP PUSH2 0x22A JUMP JUMPDEST PUSH1 0x40 MLOAD DUP1 DUP3 DUP2 MSTORE PUSH1 0x20 ADD SWAP2 POP POP PUSH1 0x40 MLOAD DUP1 SWAP2 SUB SWAP1 RETURN JUMPDEST CALLVALUE DUP1 ISZERO PUSH2 0x11E JUMPI PUSH1 0x0 DUP1 REVERT JUMPDEST POP PUSH2 0x147 PUSH1 0x4 DUP1 CALLDATASIZE SUB DUP2 ADD SWAP1 DUP1 DUP1 CALLDATALOAD SWAP1 PUSH1 0x20 ADD SWAP1 SWAP3 SWAP2 SWAP1 DUP1 CALLDATALOAD SWAP1 PUSH1 0x20 ADD SWAP1 SWAP3 SWAP2 SWAP1 POP POP POP PUSH2 0x240 JUMP JUMPDEST PUSH1 0x40 MLOAD DUP1 DUP3 DUP2 MSTORE PUSH1 0x20 ADD SWAP2 POP POP PUSH1 0x40 MLOAD DUP1 SWAP2 SUB SWAP1 RETURN JUMPDEST CALLVALUE DUP1 ISZERO PUSH2 0x169 JUMPI PUSH1 0x0 DUP1 REVERT JUMPDEST POP PUSH2 0x192 PUSH1 0x4 DUP1 CALLDATASIZE SUB DUP2 ADD SWAP1 DUP1 DUP1 CALLDATALOAD SWAP1 PUSH1 0x20 ADD SWAP1 SWAP3 SWAP2 SWAP1 DUP1 CALLDATALOAD SWAP1 PUSH1 0x20 ADD SWAP1 SWAP3 SWAP2 SWAP1 POP POP POP PUSH2 0x256 JUMP JUMPDEST PUSH1 0x40 MLOAD DUP1 DUP3 DUP2 MSTORE PUSH1 0x20 ADD SWAP2 POP POP PUSH1 0x40 MLOAD DUP1 SWAP2 SUB SWAP1 RETURN JUMPDEST CALLVALUE DUP1 ISZERO PUSH2 0x1B4 JUMPI PUSH1 0x0 DUP1 REVERT JUMPDEST POP PUSH2 0x1DD PUSH1 0x4 DUP1 CALLDATASIZE SUB DUP2 ADD SWAP1 DUP1 DUP1 CALLDATALOAD SWAP1 PUSH1 0x20 ADD SWAP1 SWAP3 SWAP2 SWAP1 DUP1 CALLDATALOAD SWAP1 PUSH1 0x20 ADD SWAP1 SWAP3 SWAP2 SWAP1 POP POP POP PUSH2 0x26C JUMP JUMPDEST PUSH1 0x40 MLOAD DUP1 DUP3 DUP2 MSTORE PUSH1 0x20 ADD SWAP2 POP POP PUSH1 0x40 MLOAD DUP1 SWAP2 SUB SWAP1 RETURN JUMPDEST PUSH1 0x0 PUSH1 0xA PUSH1 0x5 DUP5 PUSH1 0x1 DUP6 ADD PUSH1 0xA EXP DUP8 MUL DUP2 ISZERO ISZERO PUSH2 0x20C JUMPI INVALID JUMPDEST DIV ADD DUP2 ISZERO ISZERO PUSH2 0x217 JUMPI INVALID JUMPDEST DIV PUSH1 0x1 DUP2 SWAP1 SSTORE POP PUSH1 0x1 SLOAD SWAP1 POP SWAP4 SWAP3 POP POP POP JUMP JUMPDEST PUSH1 0x0 DUP2 DUP4 SUB PUSH1 0x0 DUP2 SWAP1 SSTORE POP PUSH1 0x0 SLOAD SWAP1 POP SWAP3 SWAP2 POP POP JUMP JUMPDEST PUSH1 0x0 DUP2 DUP4 ADD PUSH1 0x0 DUP2 SWAP1 SSTORE POP PUSH1 0x0 SLOAD SWAP1 POP SWAP3 SWAP2 POP POP JUMP JUMPDEST PUSH1 0x0 DUP2 DUP4 MUL PUSH1 0x0 DUP2 SWAP1 SSTORE POP PUSH1 0x0 SLOAD SWAP1 POP SWAP3 SWAP2 POP POP JUMP JUMPDEST PUSH1 0x0 DUP2 DUP4 EXP PUSH1 0x1 DUP2 SWAP1 SSTORE POP PUSH1 0x1 SLOAD SWAP1 POP SWAP3 SWAP2 POP POP JUMP STOP LOG1 PUSH6 0x627A7A723058 KECCAK256 0xd1 0x5d PUSH14 0x7B578AA36BF478D9D3B6FE4066EE 0xaf 0xf 0x4f COINBASE 0xb1 SMOD JUMP 0xd6 0xc5 SGT MOD 0xf8 GASPRICE DUP6 SAR STOP 0x29 "
				},
				"gasEstimates": {
					"creation": {
						"codeDepositCost": "137200",
						"executionCost": "10195",
						"totalCost": "147395"
					},
					"external": {
						"Add(int256,int256)": "20556",
						"Divide(uint256,uint256,uint256)": "22230",
						"Exponent(uint256,uint256)": "22207",
						"Multiply(int256,int256)": "20580",
						"Subtract(int256,int256)": "20534"
					}
				},
				"methodIdentifiers": {
					"Add(int256,int256)": "830fb67c",
					"Divide(uint256,uint256,uint256)": "2c7ddc0a",
					"Exponent(uint256,uint256)": "a0aaf05e",
					"Multiply(int256,int256)": "a062519d",
					"Subtract(int256,int256)": "3e21f396"
				}
			},
			"userdoc": {
				"methods": {}
			}
		}
	}
}