{
	"calc.sol": {
		"Calculator": {
			"abi": [
				{
					"constant": false,
					"inputs": [
						{
							"name": "a",
							"type": "int256"
						},
						{
							"name": "b",
							"type": "int256"
						}
					],
					"name": "Subtract",
					"outputs": [
						{
							"name": "",
							"type": "int256"
						}
					],
					"payable": false,
					"stateMutability": "nonpayable",
					"type": "function"
				},
				{
					"constant": false,
					"inputs": [
						{
							"name": "a",
							"type": "int256"
						},
						{
							"name": "b",
							"type": "int256"
						}
					],
					"name": "Add",
					"outputs": [
						{
							"name": "",
							"type": "int256"
						}
					],
					"payable": false,
					"stateMutability": "nonpayable",
					"type": "function"
				},
				{
					"constant": false,
					"inputs": [
						{
							"name": "a",
							"type": "int256"
						},
						{
							"name": "b",
							"type": "int256"
						}
					],
					"name": "Divide",
					"outputs": [
						{
							"name": "",
							"type": "int256"
						}
					],
					"payable": false,
					"stateMutability": "nonpayable",
					"type": "function"
				},
				{
					"constant": false,
					"inputs": [
						{
							"name": "a",
							"type": "int256"
						},
						{
							"name": "b",
							"type": "int256"
						}
					],
					"name": "Multiply",
					"outputs": [
						{
							"name": "",
							"type": "int256"
						}
					],
					"payable": false,
					"stateMutability": "nonpayable",
					"type": "function"
				},
				{
					"constant": false,
					"inputs": [
						{
							"name": "base",
							"type": "uint256"
						},
						{
							"name": "exponent",
							"type": "uint256"
						}
					],
					"name": "Exponent",
					"outputs": [
						{
							"name": "",
							"type": "uint256"
						}
					],
					"payable": false,
					"stateMutability": "nonpayable",
					"type": "function"
				}
			],
			"devdoc": {
				"methods": {}
			},
			"evm": {
				"assembly": "    /* \"calc.sol\":28:936  contract Calculator {\r... */\n  mstore(0x40, 0x80)\n    /* \"calc.sol\":85:86  0 */\n  0x0\n    /* \"calc.sol\":61:86  int private lastvalue = 0 */\n  dup1\n  sstore\n    /* \"calc.sol\":122:123  0 */\n  0x0\n    /* \"calc.sol\":93:123  uint private lastuintvalue = 0 */\n  0x1\n  sstore\n    /* \"calc.sol\":28:936  contract Calculator {\r... */\n  callvalue\n    /* \"--CODEGEN--\":8:17   */\n  dup1\n    /* \"--CODEGEN--\":5:7   */\n  iszero\n  tag_1\n  jumpi\n    /* \"--CODEGEN--\":30:31   */\n  0x0\n    /* \"--CODEGEN--\":27:28   */\n  dup1\n    /* \"--CODEGEN--\":20:32   */\n  revert\n    /* \"--CODEGEN--\":5:7   */\ntag_1:\n    /* \"calc.sol\":28:936  contract Calculator {\r... */\n  pop\n  dataSize(sub_0)\n  dup1\n  dataOffset(sub_0)\n  0x0\n  codecopy\n  0x0\n  return\nstop\n\nsub_0: assembly {\n        /* \"calc.sol\":28:936  contract Calculator {\r... */\n      mstore(0x40, 0x80)\n      jumpi(tag_1, lt(calldatasize, 0x4))\n      calldataload(0x0)\n      0x100000000000000000000000000000000000000000000000000000000\n      swap1\n      div\n      0xffffffff\n      and\n      dup1\n      0x3e21f396\n      eq\n      tag_2\n      jumpi\n      dup1\n      0x830fb67c\n      eq\n      tag_3\n      jumpi\n      dup1\n      0x989c4f43\n      eq\n      tag_4\n      jumpi\n      dup1\n      0xa062519d\n      eq\n      tag_5\n      jumpi\n      dup1\n      0xa0aaf05e\n      eq\n      tag_6\n      jumpi\n    tag_1:\n      0x0\n      dup1\n      revert\n        /* \"calc.sol\":255:371  function Subtract(int a, int b) public returns (int) {\r... */\n    tag_2:\n      callvalue\n        /* \"--CODEGEN--\":8:17   */\n      dup1\n        /* \"--CODEGEN--\":5:7   */\n      iszero\n      tag_7\n      jumpi\n        /* \"--CODEGEN--\":30:31   */\n      0x0\n        /* \"--CODEGEN--\":27:28   */\n      dup1\n        /* \"--CODEGEN--\":20:32   */\n      revert\n        /* \"--CODEGEN--\":5:7   */\n    tag_7:\n        /* \"calc.sol\":255:371  function Subtract(int a, int b) public returns (int) {\r... */\n      pop\n      tag_8\n      0x4\n      dup1\n      calldatasize\n      sub\n      dup2\n      add\n      swap1\n      dup1\n      dup1\n      calldataload\n      swap1\n      0x20\n      add\n      swap1\n      swap3\n      swap2\n      swap1\n      dup1\n      calldataload\n      swap1\n      0x20\n      add\n      swap1\n      swap3\n      swap2\n      swap1\n      pop\n      pop\n      pop\n      jump(tag_9)\n    tag_8:\n      mload(0x40)\n      dup1\n      dup3\n      dup2\n      mstore\n      0x20\n      add\n      swap2\n      pop\n      pop\n      mload(0x40)\n      dup1\n      swap2\n      sub\n      swap1\n      return\n        /* \"calc.sol\":132:243  function Add(int a, int b) public returns (int) {\r... */\n    tag_3:\n      callvalue\n        /* \"--CODEGEN--\":8:17   */\n      dup1\n        /* \"--CODEGEN--\":5:7   */\n      iszero\n      tag_10\n      jumpi\n        /* \"--CODEGEN--\":30:31   */\n      0x0\n        /* \"--CODEGEN--\":27:28   */\n      dup1\n        /* \"--CODEGEN--\":20:32   */\n      revert\n        /* \"--CODEGEN--\":5:7   */\n    tag_10:\n        /* \"calc.sol\":132:243  function Add(int a, int b) public returns (int) {\r... */\n      pop\n      tag_11\n      0x4\n      dup1\n      calldatasize\n      sub\n      dup2\n      add\n      swap1\n      dup1\n      dup1\n      calldataload\n      swap1\n      0x20\n      add\n      swap1\n      swap3\n      swap2\n      swap1\n      dup1\n      calldataload\n      swap1\n      0x20\n      add\n      swap1\n      swap3\n      swap2\n      swap1\n      pop\n      pop\n      pop\n      jump(tag_12)\n    tag_11:\n      mload(0x40)\n      dup1\n      dup3\n      dup2\n      mstore\n      0x20\n      add\n      swap2\n      pop\n      pop\n      mload(0x40)\n      dup1\n      swap2\n      sub\n      swap1\n      return\n        /* \"calc.sol\":502:693  function Divide(int a, int b) public returns (int){\r... */\n    tag_4:\n      callvalue\n        /* \"--CODEGEN--\":8:17   */\n      dup1\n        /* \"--CODEGEN--\":5:7   */\n      iszero\n      tag_13\n      jumpi\n        /* \"--CODEGEN--\":30:31   */\n      0x0\n        /* \"--CODEGEN--\":27:28   */\n      dup1\n        /* \"--CODEGEN--\":20:32   */\n      revert\n        /* \"--CODEGEN--\":5:7   */\n    tag_13:\n        /* \"calc.sol\":502:693  function Divide(int a, int b) public returns (int){\r... */\n      pop\n      tag_14\n      0x4\n      dup1\n      calldatasize\n      sub\n      dup2\n      add\n      swap1\n      dup1\n      dup1\n      calldataload\n      swap1\n      0x20\n      add\n      swap1\n      swap3\n      swap2\n      swap1\n      dup1\n      calldataload\n      swap1\n      0x20\n      add\n      swap1\n      swap3\n      swap2\n      swap1\n      pop\n      pop\n      pop\n      jump(tag_15)\n    tag_14:\n      mload(0x40)\n      dup1\n      dup3\n      dup2\n      mstore\n      0x20\n      add\n      swap2\n      pop\n      pop\n      mload(0x40)\n      dup1\n      swap2\n      sub\n      swap1\n      return\n        /* \"calc.sol\":379:494  function Multiply(int a, int b) public returns (int){\r... */\n    tag_5:\n      callvalue\n        /* \"--CODEGEN--\":8:17   */\n      dup1\n        /* \"--CODEGEN--\":5:7   */\n      iszero\n      tag_16\n      jumpi\n        /* \"--CODEGEN--\":30:31   */\n      0x0\n        /* \"--CODEGEN--\":27:28   */\n      dup1\n        /* \"--CODEGEN--\":20:32   */\n      revert\n        /* \"--CODEGEN--\":5:7   */\n    tag_16:\n        /* \"calc.sol\":379:494  function Multiply(int a, int b) public returns (int){\r... */\n      pop\n      tag_17\n      0x4\n      dup1\n      calldatasize\n      sub\n      dup2\n      add\n      swap1\n      dup1\n      dup1\n      calldataload\n      swap1\n      0x20\n      add\n      swap1\n      swap3\n      swap2\n      swap1\n      dup1\n      calldataload\n      swap1\n      0x20\n      add\n      swap1\n      swap3\n      swap2\n      swap1\n      pop\n      pop\n      pop\n      jump(tag_18)\n    tag_17:\n      mload(0x40)\n      dup1\n      dup3\n      dup2\n      mstore\n      0x20\n      add\n      swap2\n      pop\n      pop\n      mload(0x40)\n      dup1\n      swap2\n      sub\n      swap1\n      return\n        /* \"calc.sol\":701:933  function Exponent(uint base, uint exponent) public returns (uint){\r... */\n    tag_6:\n      callvalue\n        /* \"--CODEGEN--\":8:17   */\n      dup1\n        /* \"--CODEGEN--\":5:7   */\n      iszero\n      tag_19\n      jumpi\n        /* \"--CODEGEN--\":30:31   */\n      0x0\n        /* \"--CODEGEN--\":27:28   */\n      dup1\n        /* \"--CODEGEN--\":20:32   */\n      revert\n        /* \"--CODEGEN--\":5:7   */\n    tag_19:\n        /* \"calc.sol\":701:933  function Exponent(uint base, uint exponent) public returns (uint){\r... */\n      pop\n      tag_20\n      0x4\n      dup1\n      calldatasize\n      sub\n      dup2\n      add\n      swap1\n      dup1\n      dup1\n      calldataload\n      swap1\n      0x20\n      add\n      swap1\n      swap3\n      swap2\n      swap1\n      dup1\n      calldataload\n      swap1\n      0x20\n      add\n      swap1\n      swap3\n      swap2\n      swap1\n      pop\n      pop\n      pop\n      jump(tag_21)\n    tag_20:\n      mload(0x40)\n      dup1\n      dup3\n      dup2\n      mstore\n      0x20\n      add\n      swap2\n      pop\n      pop\n      mload(0x40)\n      dup1\n      swap2\n      sub\n      swap1\n      return\n        /* \"calc.sol\":255:371  function Subtract(int a, int b) public returns (int) {\r... */\n    tag_9:\n        /* \"calc.sol\":303:306  int */\n      0x0\n        /* \"calc.sol\":335:336  b */\n      dup2\n        /* \"calc.sol\":331:332  a */\n      dup4\n        /* \"calc.sol\":331:336  a - b */\n      sub\n        /* \"calc.sol\":319:328  lastvalue */\n      0x0\n        /* \"calc.sol\":319:336  lastvalue = a - b */\n      dup2\n      swap1\n      sstore\n      pop\n        /* \"calc.sol\":354:363  lastvalue */\n      sload(0x0)\n        /* \"calc.sol\":347:363  return lastvalue */\n      swap1\n      pop\n        /* \"calc.sol\":255:371  function Subtract(int a, int b) public returns (int) {\r... */\n      swap3\n      swap2\n      pop\n      pop\n      jump\t// out\n        /* \"calc.sol\":132:243  function Add(int a, int b) public returns (int) {\r... */\n    tag_12:\n        /* \"calc.sol\":175:178  int */\n      0x0\n        /* \"calc.sol\":207:208  b */\n      dup2\n        /* \"calc.sol\":203:204  a */\n      dup4\n        /* \"calc.sol\":203:208  a + b */\n      add\n        /* \"calc.sol\":191:200  lastvalue */\n      0x0\n        /* \"calc.sol\":191:208  lastvalue = a + b */\n      dup2\n      swap1\n      sstore\n      pop\n        /* \"calc.sol\":226:235  lastvalue */\n      sload(0x0)\n        /* \"calc.sol\":219:235  return lastvalue */\n      swap1\n      pop\n        /* \"calc.sol\":132:243  function Add(int a, int b) public returns (int) {\r... */\n      swap3\n      swap2\n      pop\n      pop\n      jump\t// out\n        /* \"calc.sol\":502:693  function Divide(int a, int b) public returns (int){\r... */\n    tag_15:\n        /* \"calc.sol\":548:551  int */\n      0x0\n        /* \"calc.sol\":576:577  0 */\n      dup1\n        /* \"calc.sol\":572:573  b */\n      dup3\n        /* \"calc.sol\":572:577  b > 0 */\n      sgt\n        /* \"calc.sol\":563:630  require (b > 0, \"The second parameter should be greater than zero\") */\n      iszero\n      iszero\n      tag_25\n      jumpi\n      mload(0x40)\n      0x8c379a000000000000000000000000000000000000000000000000000000000\n      dup2\n      mstore\n      0x4\n      add\n      dup1\n      dup1\n      0x20\n      add\n      dup3\n      dup2\n      sub\n      dup3\n      mstore\n      0x30\n      dup2\n      mstore\n      0x20\n      add\n      dup1\n      0x546865207365636f6e6420706172616d657465722073686f756c642062652067\n      dup2\n      mstore\n      0x20\n      add\n      0x726561746572207468616e207a65726f00000000000000000000000000000000\n      dup2\n      mstore\n      pop\n      0x40\n      add\n      swap2\n      pop\n      pop\n      mload(0x40)\n      dup1\n      swap2\n      sub\n      swap1\n      revert\n    tag_25:\n        /* \"calc.sol\":657:658  b */\n      dup2\n        /* \"calc.sol\":653:654  a */\n      dup4\n        /* \"calc.sol\":653:658  a / b */\n      dup2\n      iszero\n      iszero\n      tag_26\n      jumpi\n      invalid\n    tag_26:\n      sdiv\n        /* \"calc.sol\":641:650  lastvalue */\n      0x0\n        /* \"calc.sol\":641:658  lastvalue = a / b */\n      dup2\n      swap1\n      sstore\n      pop\n        /* \"calc.sol\":676:685  lastvalue */\n      sload(0x0)\n        /* \"calc.sol\":669:685  return lastvalue */\n      swap1\n      pop\n        /* \"calc.sol\":502:693  function Divide(int a, int b) public returns (int){\r... */\n      swap3\n      swap2\n      pop\n      pop\n      jump\t// out\n        /* \"calc.sol\":379:494  function Multiply(int a, int b) public returns (int){\r... */\n    tag_18:\n        /* \"calc.sol\":427:430  int */\n      0x0\n        /* \"calc.sol\":458:459  b */\n      dup2\n        /* \"calc.sol\":454:455  a */\n      dup4\n        /* \"calc.sol\":454:459  a * b */\n      mul\n        /* \"calc.sol\":442:451  lastvalue */\n      0x0\n        /* \"calc.sol\":442:459  lastvalue = a * b */\n      dup2\n      swap1\n      sstore\n      pop\n        /* \"calc.sol\":477:486  lastvalue */\n      sload(0x0)\n        /* \"calc.sol\":470:486  return lastvalue */\n      swap1\n      pop\n        /* \"calc.sol\":379:494  function Multiply(int a, int b) public returns (int){\r... */\n      swap3\n      swap2\n      pop\n      pop\n      jump\t// out\n        /* \"calc.sol\":701:933  function Exponent(uint base, uint exponent) public returns (uint){\r... */\n    tag_21:\n        /* \"calc.sol\":761:765  uint */\n      0x0\n        /* \"calc.sol\":797:798  0 */\n      dup1\n        /* \"calc.sol\":786:794  exponent */\n      dup3\n        /* \"calc.sol\":786:798  exponent > 0 */\n      gt\n        /* \"calc.sol\":777:851  require (exponent > 0, \"The second parameter should be greater than zero\") */\n      iszero\n      iszero\n      tag_29\n      jumpi\n      mload(0x40)\n      0x8c379a000000000000000000000000000000000000000000000000000000000\n      dup2\n      mstore\n      0x4\n      add\n      dup1\n      dup1\n      0x20\n      add\n      dup3\n      dup2\n      sub\n      dup3\n      mstore\n      0x30\n      dup2\n      mstore\n      0x20\n      add\n      dup1\n      0x546865207365636f6e6420706172616d657465722073686f756c642062652067\n      dup2\n      mstore\n      0x20\n      add\n      0x726561746572207468616e207a65726f00000000000000000000000000000000\n      dup2\n      mstore\n      pop\n      0x40\n      add\n      swap2\n      pop\n      pop\n      mload(0x40)\n      dup1\n      swap2\n      sub\n      swap1\n      revert\n    tag_29:\n        /* \"calc.sol\":886:894  exponent */\n      dup2\n        /* \"calc.sol\":878:882  base */\n      dup4\n        /* \"calc.sol\":878:894  base ** exponent */\n      exp\n        /* \"calc.sol\":862:875  lastuintvalue */\n      0x1\n        /* \"calc.sol\":862:894  lastuintvalue = base ** exponent */\n      dup2\n      swap1\n      sstore\n      pop\n        /* \"calc.sol\":912:925  lastuintvalue */\n      sload(0x1)\n        /* \"calc.sol\":905:925  return lastuintvalue */\n      swap1\n      pop\n        /* \"calc.sol\":701:933  function Exponent(uint base, uint exponent) public returns (uint){\r... */\n      swap3\n      swap2\n      pop\n      pop\n      jump\t// out\n\n    auxdata: 0xa165627a7a72305820cc8d234986523b94451783f82c533e16d5d6931cf0de39d7775a6b623469a6d10029\n}\n",
				"bytecode": {
					"linkReferences": {},
					"object": "608060405260008055600060015534801561001957600080fd5b506103c6806100296000396000f30060806040526004361061006d576000357c0100000000000000000000000000000000000000000000000000000000900463ffffffff1680633e21f39614610072578063830fb67c146100bd578063989c4f4314610108578063a062519d14610153578063a0aaf05e1461019e575b600080fd5b34801561007e57600080fd5b506100a760048036038101908080359060200190929190803590602001909291905050506101e9565b6040518082815260200191505060405180910390f35b3480156100c957600080fd5b506100f260048036038101908080359060200190929190803590602001909291905050506101ff565b6040518082815260200191505060405180910390f35b34801561011457600080fd5b5061013d6004803603810190808035906020019092919080359060200190929190505050610215565b6040518082815260200191505060405180910390f35b34801561015f57600080fd5b5061018860048036038101908080359060200190929190803590602001909291905050506102d1565b6040518082815260200191505060405180910390f35b3480156101aa57600080fd5b506101d360048036038101908080359060200190929190803590602001909291905050506102e7565b6040518082815260200191505060405180910390f35b6000818303600081905550600054905092915050565b6000818301600081905550600054905092915050565b600080821315156102b4576040517f08c379a00000000000000000000000000000000000000000000000000000000081526004018080602001828103825260308152602001807f546865207365636f6e6420706172616d657465722073686f756c64206265206781526020017f726561746572207468616e207a65726f0000000000000000000000000000000081525060400191505060405180910390fd5b81838115156102bf57fe5b05600081905550600054905092915050565b6000818302600081905550600054905092915050565b60008082111515610386576040517f08c379a00000000000000000000000000000000000000000000000000000000081526004018080602001828103825260308152602001807f546865207365636f6e6420706172616d657465722073686f756c64206265206781526020017f726561746572207468616e207a65726f0000000000000000000000000000000081525060400191505060405180910390fd5b81830a6001819055506001549050929150505600a165627a7a72305820cc8d234986523b94451783f82c533e16d5d6931cf0de39d7775a6b623469a6d10029",
					"opcodes": "PUSH1 0x80 PUSH1 0x40 MSTORE PUSH1 0x0 DUP1 SSTORE PUSH1 0x0 PUSH1 0x1 SSTORE CALLVALUE DUP1 ISZERO PUSH2 0x19 JUMPI PUSH1 0x0 DUP1 REVERT JUMPDEST POP PUSH2 0x3C6 DUP1 PUSH2 0x29 PUSH1 0x0 CODECOPY PUSH1 0x0 RETURN STOP PUSH1 0x80 PUSH1 0x40 MSTORE PUSH1 0x4 CALLDATASIZE LT PUSH2 0x6D JUMPI PUSH1 0x0 CALLDATALOAD PUSH29 0x100000000000000000000000000000000000000000000000000000000 SWAP1 DIV PUSH4 0xFFFFFFFF AND DUP1 PUSH4 0x3E21F396 EQ PUSH2 0x72 JUMPI DUP1 PUSH4 0x830FB67C EQ PUSH2 0xBD JUMPI DUP1 PUSH4 0x989C4F43 EQ PUSH2 0x108 JUMPI DUP1 PUSH4 0xA062519D EQ PUSH2 0x153 JUMPI DUP1 PUSH4 0xA0AAF05E EQ PUSH2 0x19E JUMPI JUMPDEST PUSH1 0x0 DUP1 REVERT JUMPDEST CALLVALUE DUP1 ISZERO PUSH2 0x7E JUMPI PUSH1 0x0 DUP1 REVERT JUMPDEST POP PUSH2 0xA7 PUSH1 0x4 DUP1 CALLDATASIZE SUB DUP2 ADD SWAP1 DUP1 DUP1 CALLDATALOAD SWAP1 PUSH1 0x20 ADD SWAP1 SWAP3 SWAP2 SWAP1 DUP1 CALLDATALOAD SWAP1 PUSH1 0x20 ADD SWAP1 SWAP3 SWAP2 SWAP1 POP POP POP PUSH2 0x1E9 JUMP JUMPDEST PUSH1 0x40 MLOAD DUP1 DUP3 DUP2 MSTORE PUSH1 0x20 ADD SWAP2 POP POP PUSH1 0x40 MLOAD DUP1 SWAP2 SUB SWAP1 RETURN JUMPDEST CALLVALUE DUP1 ISZERO PUSH2 0xC9 JUMPI PUSH1 0x0 DUP1 REVERT JUMPDEST POP PUSH2 0xF2 PUSH1 0x4 DUP1 CALLDATASIZE SUB DUP2 ADD SWAP1 DUP1 DUP1 CALLDATALOAD SWAP1 PUSH1 0x20 ADD SWAP1 SWAP3 SWAP2 SWAP1 DUP1 CALLDATALOAD SWAP1 PUSH1 0x20 ADD SWAP1 SWAP3 SWAP2 SWAP1 POP POP POP PUSH2 0x1FF JUMP JUMPDEST PUSH1 0x40 MLOAD DUP1 DUP3 DUP2 MSTORE PUSH1 0x20 ADD SWAP2 POP POP PUSH1 0x40 MLOAD DUP1 SWAP2 SUB SWAP1 RETURN JUMPDEST CALLVALUE DUP1 ISZERO PUSH2 0x114 JUMPI PUSH1 0x0 DUP1 REVERT JUMPDEST POP PUSH2 0x13D PUSH1 0x4 DUP1 CALLDATASIZE SUB DUP2 ADD SWAP1 DUP1 DUP1 CALLDATALOAD SWAP1 PUSH1 0x20 ADD SWAP1 SWAP3 SWAP2 SWAP1 DUP1 CALLDATALOAD SWAP1 PUSH1 0x20 ADD SWAP1 SWAP3 SWAP2 SWAP1 POP POP POP PUSH2 0x215 JUMP JUMPDEST PUSH1 0x40 MLOAD DUP1 DUP3 DUP2 MSTORE PUSH1 0x20 ADD SWAP2 POP POP PUSH1 0x40 MLOAD DUP1 SWAP2 SUB SWAP1 RETURN JUMPDEST CALLVALUE DUP1 ISZERO PUSH2 0x15F JUMPI PUSH1 0x0 DUP1 REVERT JUMPDEST POP PUSH2 0x188 PUSH1 0x4 DUP1 CALLDATASIZE SUB DUP2 ADD SWAP1 DUP1 DUP1 CALLDATALOAD SWAP1 PUSH1 0x20 ADD SWAP1 SWAP3 SWAP2 SWAP1 DUP1 CALLDATALOAD SWAP1 PUSH1 0x20 ADD SWAP1 SWAP3 SWAP2 SWAP1 POP POP POP PUSH2 0x2D1 JUMP JUMPDEST PUSH1 0x40 MLOAD DUP1 DUP3 DUP2 MSTORE PUSH1 0x20 ADD SWAP2 POP POP PUSH1 0x40 MLOAD DUP1 SWAP2 SUB SWAP1 RETURN JUMPDEST CALLVALUE DUP1 ISZERO PUSH2 0x1AA JUMPI PUSH1 0x0 DUP1 REVERT JUMPDEST POP PUSH2 0x1D3 PUSH1 0x4 DUP1 CALLDATASIZE SUB DUP2 ADD SWAP1 DUP1 DUP1 CALLDATALOAD SWAP1 PUSH1 0x20 ADD SWAP1 SWAP3 SWAP2 SWAP1 DUP1 CALLDATALOAD SWAP1 PUSH1 0x20 ADD SWAP1 SWAP3 SWAP2 SWAP1 POP POP POP PUSH2 0x2E7 JUMP JUMPDEST PUSH1 0x40 MLOAD DUP1 DUP3 DUP2 MSTORE PUSH1 0x20 ADD SWAP2 POP POP PUSH1 0x40 MLOAD DUP1 SWAP2 SUB SWAP1 RETURN JUMPDEST PUSH1 0x0 DUP2 DUP4 SUB PUSH1 0x0 DUP2 SWAP1 SSTORE POP PUSH1 0x0 SLOAD SWAP1 POP SWAP3 SWAP2 POP POP JUMP JUMPDEST PUSH1 0x0 DUP2 DUP4 ADD PUSH1 0x0 DUP2 SWAP1 SSTORE POP PUSH1 0x0 SLOAD SWAP1 POP SWAP3 SWAP2 POP POP JUMP JUMPDEST PUSH1 0x0 DUP1 DUP3 SGT ISZERO ISZERO PUSH2 0x2B4 JUMPI PUSH1 0x40 MLOAD PUSH32 0x8C379A000000000000000000000000000000000000000000000000000000000 DUP2 MSTORE PUSH1 0x4 ADD DUP1 DUP1 PUSH1 0x20 ADD DUP3 DUP2 SUB DUP3 MSTORE PUSH1 0x30 DUP2 MSTORE PUSH1 0x20 ADD DUP1 PUSH32 0x546865207365636F6E6420706172616D657465722073686F756C642062652067 DUP2 MSTORE PUSH1 0x20 ADD PUSH32 0x726561746572207468616E207A65726F00000000000000000000000000000000 DUP2 MSTORE POP PUSH1 0x40 ADD SWAP2 POP POP PUSH1 0x40 MLOAD DUP1 SWAP2 SUB SWAP1 REVERT JUMPDEST DUP2 DUP4 DUP2 ISZERO ISZERO PUSH2 0x2BF JUMPI INVALID JUMPDEST SDIV PUSH1 0x0 DUP2 SWAP1 SSTORE POP PUSH1 0x0 SLOAD SWAP1 POP SWAP3 SWAP2 POP POP JUMP JUMPDEST PUSH1 0x0 DUP2 DUP4 MUL PUSH1 0x0 DUP2 SWAP1 SSTORE POP PUSH1 0x0 SLOAD SWAP1 POP SWAP3 SWAP2 POP POP JUMP JUMPDEST PUSH1 0x0 DUP1 DUP3 GT ISZERO ISZERO PUSH2 0x386 JUMPI PUSH1 0x40 MLOAD PUSH32 0x8C379A000000000000000000000000000000000000000000000000000000000 DUP2 MSTORE PUSH1 0x4 ADD DUP1 DUP1 PUSH1 0x20 ADD DUP3 DUP2 SUB DUP3 MSTORE PUSH1 0x30 DUP2 MSTORE PUSH1 0x20 ADD DUP1 PUSH32 0x546865207365636F6E6420706172616D657465722073686F756C642062652067 DUP2 MSTORE PUSH1 0x20 ADD PUSH32 0x726561746572207468616E207A65726F00000000000000000000000000000000 DUP2 MSTORE POP PUSH1 0x40 ADD SWAP2 POP POP PUSH1 0x40 MLOAD DUP1 SWAP2 SUB SWAP1 REVERT JUMPDEST DUP2 DUP4 EXP PUSH1 0x1 DUP2 SWAP1 SSTORE POP PUSH1 0x1 SLOAD SWAP1 POP SWAP3 SWAP2 POP POP JUMP STOP LOG1 PUSH6 0x627A7A723058 KECCAK256 0xcc DUP14 0x23 0x49 DUP7 MSTORE EXTCODESIZE SWAP5 GASLIMIT OR DUP4 0xf8 0x2c MSTORE8 RETURNDATACOPY AND 0xd5 0xd6 SWAP4 SHR CREATE 0xde CODECOPY 0xd7 PUSH24 0x5A6B623469A6D10029000000000000000000000000000000 "
				},
				"gasEstimates": {
					"creation": {
						"codeDepositCost": "193200",
						"executionCost": "10250",
						"totalCost": "203450"
					},
					"external": {
						"Add(int256,int256)": "20534",
						"Divide(int256,int256)": "20610",
						"Exponent(uint256,uint256)": "22236",
						"Multiply(int256,int256)": "20580",
						"Subtract(int256,int256)": "20512"
					}
				},
				"methodIdentifiers": {
					"Add(int256,int256)": "830fb67c",
					"Divide(int256,int256)": "989c4f43",
					"Exponent(uint256,uint256)": "a0aaf05e",
					"Multiply(int256,int256)": "a062519d",
					"Subtract(int256,int256)": "3e21f396"
				}
			},
			"userdoc": {
				"methods": {}
			}
		}
	}
}