{
	"calc.sol": {
		"Calculator": {
			"abi": [
				{
					"constant": false,
					"inputs": [
						{
							"name": "a",
							"type": "int256"
						},
						{
							"name": "b",
							"type": "int256"
						}
					],
					"name": "Subtract",
					"outputs": [
						{
							"name": "",
							"type": "int256"
						}
					],
					"payable": false,
					"stateMutability": "nonpayable",
					"type": "function"
				},
				{
					"constant": false,
					"inputs": [
						{
							"name": "a",
							"type": "int256"
						},
						{
							"name": "b",
							"type": "int256"
						}
					],
					"name": "Add",
					"outputs": [
						{
							"name": "",
							"type": "int256"
						}
					],
					"payable": false,
					"stateMutability": "nonpayable",
					"type": "function"
				},
				{
					"constant": false,
					"inputs": [
						{
							"name": "a",
							"type": "int256"
						},
						{
							"name": "b",
							"type": "int256"
						}
					],
					"name": "Divide",
					"outputs": [
						{
							"name": "",
							"type": "int256"
						}
					],
					"payable": false,
					"stateMutability": "nonpayable",
					"type": "function"
				},
				{
					"constant": false,
					"inputs": [
						{
							"name": "a",
							"type": "int256"
						},
						{
							"name": "b",
							"type": "int256"
						}
					],
					"name": "Multiply",
					"outputs": [
						{
							"name": "",
							"type": "int256"
						}
					],
					"payable": false,
					"stateMutability": "nonpayable",
					"type": "function"
				},
				{
					"constant": true,
					"inputs": [],
					"name": "LastOperation",
					"outputs": [
						{
							"name": "",
							"type": "int256"
						}
					],
					"payable": false,
					"stateMutability": "view",
					"type": "function"
				}
			],
			"devdoc": {
				"methods": {}
			},
			"evm": {
				"assembly": "    /* \"calc.sol\":28:757  contract Calculator {\r... */\n  mstore(0x40, 0x80)\n    /* \"calc.sol\":85:86  0 */\n  0x0\n    /* \"calc.sol\":61:86  int private lastvalue = 0 */\n  dup1\n  sstore\n    /* \"calc.sol\":28:757  contract Calculator {\r... */\n  callvalue\n    /* \"--CODEGEN--\":8:17   */\n  dup1\n    /* \"--CODEGEN--\":5:7   */\n  iszero\n  tag_1\n  jumpi\n    /* \"--CODEGEN--\":30:31   */\n  0x0\n    /* \"--CODEGEN--\":27:28   */\n  dup1\n    /* \"--CODEGEN--\":20:32   */\n  revert\n    /* \"--CODEGEN--\":5:7   */\ntag_1:\n    /* \"calc.sol\":28:757  contract Calculator {\r... */\n  pop\n  dataSize(sub_0)\n  dup1\n  dataOffset(sub_0)\n  0x0\n  codecopy\n  0x0\n  return\nstop\n\nsub_0: assembly {\n        /* \"calc.sol\":28:757  contract Calculator {\r... */\n      mstore(0x40, 0x80)\n      jumpi(tag_1, lt(calldatasize, 0x4))\n      calldataload(0x0)\n      0x100000000000000000000000000000000000000000000000000000000\n      swap1\n      div\n      0xffffffff\n      and\n      dup1\n      0x3e21f396\n      eq\n      tag_2\n      jumpi\n      dup1\n      0x830fb67c\n      eq\n      tag_3\n      jumpi\n      dup1\n      0x989c4f43\n      eq\n      tag_4\n      jumpi\n      dup1\n      0xa062519d\n      eq\n      tag_5\n      jumpi\n      dup1\n      0xd3507d71\n      eq\n      tag_6\n      jumpi\n    tag_1:\n      0x0\n      dup1\n      revert\n        /* \"calc.sol\":218:334  function Subtract(int a, int b) public returns (int) {\r... */\n    tag_2:\n      callvalue\n        /* \"--CODEGEN--\":8:17   */\n      dup1\n        /* \"--CODEGEN--\":5:7   */\n      iszero\n      tag_7\n      jumpi\n        /* \"--CODEGEN--\":30:31   */\n      0x0\n        /* \"--CODEGEN--\":27:28   */\n      dup1\n        /* \"--CODEGEN--\":20:32   */\n      revert\n        /* \"--CODEGEN--\":5:7   */\n    tag_7:\n        /* \"calc.sol\":218:334  function Subtract(int a, int b) public returns (int) {\r... */\n      pop\n      tag_8\n      0x4\n      dup1\n      calldatasize\n      sub\n      dup2\n      add\n      swap1\n      dup1\n      dup1\n      calldataload\n      swap1\n      0x20\n      add\n      swap1\n      swap3\n      swap2\n      swap1\n      dup1\n      calldataload\n      swap1\n      0x20\n      add\n      swap1\n      swap3\n      swap2\n      swap1\n      pop\n      pop\n      pop\n      jump(tag_9)\n    tag_8:\n      mload(0x40)\n      dup1\n      dup3\n      dup2\n      mstore\n      0x20\n      add\n      swap2\n      pop\n      pop\n      mload(0x40)\n      dup1\n      swap2\n      sub\n      swap1\n      return\n        /* \"calc.sol\":95:206  function Add(int a, int b) public returns (int) {\r... */\n    tag_3:\n      callvalue\n        /* \"--CODEGEN--\":8:17   */\n      dup1\n        /* \"--CODEGEN--\":5:7   */\n      iszero\n      tag_10\n      jumpi\n        /* \"--CODEGEN--\":30:31   */\n      0x0\n        /* \"--CODEGEN--\":27:28   */\n      dup1\n        /* \"--CODEGEN--\":20:32   */\n      revert\n        /* \"--CODEGEN--\":5:7   */\n    tag_10:\n        /* \"calc.sol\":95:206  function Add(int a, int b) public returns (int) {\r... */\n      pop\n      tag_11\n      0x4\n      dup1\n      calldatasize\n      sub\n      dup2\n      add\n      swap1\n      dup1\n      dup1\n      calldataload\n      swap1\n      0x20\n      add\n      swap1\n      swap3\n      swap2\n      swap1\n      dup1\n      calldataload\n      swap1\n      0x20\n      add\n      swap1\n      swap3\n      swap2\n      swap1\n      pop\n      pop\n      pop\n      jump(tag_12)\n    tag_11:\n      mload(0x40)\n      dup1\n      dup3\n      dup2\n      mstore\n      0x20\n      add\n      swap2\n      pop\n      pop\n      mload(0x40)\n      dup1\n      swap2\n      sub\n      swap1\n      return\n        /* \"calc.sol\":465:656  function Divide(int a, int b) public returns (int){\r... */\n    tag_4:\n      callvalue\n        /* \"--CODEGEN--\":8:17   */\n      dup1\n        /* \"--CODEGEN--\":5:7   */\n      iszero\n      tag_13\n      jumpi\n        /* \"--CODEGEN--\":30:31   */\n      0x0\n        /* \"--CODEGEN--\":27:28   */\n      dup1\n        /* \"--CODEGEN--\":20:32   */\n      revert\n        /* \"--CODEGEN--\":5:7   */\n    tag_13:\n        /* \"calc.sol\":465:656  function Divide(int a, int b) public returns (int){\r... */\n      pop\n      tag_14\n      0x4\n      dup1\n      calldatasize\n      sub\n      dup2\n      add\n      swap1\n      dup1\n      dup1\n      calldataload\n      swap1\n      0x20\n      add\n      swap1\n      swap3\n      swap2\n      swap1\n      dup1\n      calldataload\n      swap1\n      0x20\n      add\n      swap1\n      swap3\n      swap2\n      swap1\n      pop\n      pop\n      pop\n      jump(tag_15)\n    tag_14:\n      mload(0x40)\n      dup1\n      dup3\n      dup2\n      mstore\n      0x20\n      add\n      swap2\n      pop\n      pop\n      mload(0x40)\n      dup1\n      swap2\n      sub\n      swap1\n      return\n        /* \"calc.sol\":342:457  function Multiply(int a, int b) public returns (int){\r... */\n    tag_5:\n      callvalue\n        /* \"--CODEGEN--\":8:17   */\n      dup1\n        /* \"--CODEGEN--\":5:7   */\n      iszero\n      tag_16\n      jumpi\n        /* \"--CODEGEN--\":30:31   */\n      0x0\n        /* \"--CODEGEN--\":27:28   */\n      dup1\n        /* \"--CODEGEN--\":20:32   */\n      revert\n        /* \"--CODEGEN--\":5:7   */\n    tag_16:\n        /* \"calc.sol\":342:457  function Multiply(int a, int b) public returns (int){\r... */\n      pop\n      tag_17\n      0x4\n      dup1\n      calldatasize\n      sub\n      dup2\n      add\n      swap1\n      dup1\n      dup1\n      calldataload\n      swap1\n      0x20\n      add\n      swap1\n      swap3\n      swap2\n      swap1\n      dup1\n      calldataload\n      swap1\n      0x20\n      add\n      swap1\n      swap3\n      swap2\n      swap1\n      pop\n      pop\n      pop\n      jump(tag_18)\n    tag_17:\n      mload(0x40)\n      dup1\n      dup3\n      dup2\n      mstore\n      0x20\n      add\n      swap2\n      pop\n      pop\n      mload(0x40)\n      dup1\n      swap2\n      sub\n      swap1\n      return\n        /* \"calc.sol\":664:754  function LastOperation() public constant returns (int) {\r... */\n    tag_6:\n      callvalue\n        /* \"--CODEGEN--\":8:17   */\n      dup1\n        /* \"--CODEGEN--\":5:7   */\n      iszero\n      tag_19\n      jumpi\n        /* \"--CODEGEN--\":30:31   */\n      0x0\n        /* \"--CODEGEN--\":27:28   */\n      dup1\n        /* \"--CODEGEN--\":20:32   */\n      revert\n        /* \"--CODEGEN--\":5:7   */\n    tag_19:\n        /* \"calc.sol\":664:754  function LastOperation() public constant returns (int) {\r... */\n      pop\n      tag_20\n      jump(tag_21)\n    tag_20:\n      mload(0x40)\n      dup1\n      dup3\n      dup2\n      mstore\n      0x20\n      add\n      swap2\n      pop\n      pop\n      mload(0x40)\n      dup1\n      swap2\n      sub\n      swap1\n      return\n        /* \"calc.sol\":218:334  function Subtract(int a, int b) public returns (int) {\r... */\n    tag_9:\n        /* \"calc.sol\":266:269  int */\n      0x0\n        /* \"calc.sol\":298:299  b */\n      dup2\n        /* \"calc.sol\":294:295  a */\n      dup4\n        /* \"calc.sol\":294:299  a - b */\n      sub\n        /* \"calc.sol\":282:291  lastvalue */\n      0x0\n        /* \"calc.sol\":282:299  lastvalue = a - b */\n      dup2\n      swap1\n      sstore\n      pop\n        /* \"calc.sol\":317:326  lastvalue */\n      sload(0x0)\n        /* \"calc.sol\":310:326  return lastvalue */\n      swap1\n      pop\n        /* \"calc.sol\":218:334  function Subtract(int a, int b) public returns (int) {\r... */\n      swap3\n      swap2\n      pop\n      pop\n      jump\t// out\n        /* \"calc.sol\":95:206  function Add(int a, int b) public returns (int) {\r... */\n    tag_12:\n        /* \"calc.sol\":138:141  int */\n      0x0\n        /* \"calc.sol\":170:171  b */\n      dup2\n        /* \"calc.sol\":166:167  a */\n      dup4\n        /* \"calc.sol\":166:171  a + b */\n      add\n        /* \"calc.sol\":154:163  lastvalue */\n      0x0\n        /* \"calc.sol\":154:171  lastvalue = a + b */\n      dup2\n      swap1\n      sstore\n      pop\n        /* \"calc.sol\":189:198  lastvalue */\n      sload(0x0)\n        /* \"calc.sol\":182:198  return lastvalue */\n      swap1\n      pop\n        /* \"calc.sol\":95:206  function Add(int a, int b) public returns (int) {\r... */\n      swap3\n      swap2\n      pop\n      pop\n      jump\t// out\n        /* \"calc.sol\":465:656  function Divide(int a, int b) public returns (int){\r... */\n    tag_15:\n        /* \"calc.sol\":511:514  int */\n      0x0\n        /* \"calc.sol\":539:540  0 */\n      dup1\n        /* \"calc.sol\":535:536  b */\n      dup3\n        /* \"calc.sol\":535:540  b > 0 */\n      sgt\n        /* \"calc.sol\":526:593  require (b > 0, \"The second parameter should be greater than zero\") */\n      iszero\n      iszero\n      tag_25\n      jumpi\n      mload(0x40)\n      0x8c379a000000000000000000000000000000000000000000000000000000000\n      dup2\n      mstore\n      0x4\n      add\n      dup1\n      dup1\n      0x20\n      add\n      dup3\n      dup2\n      sub\n      dup3\n      mstore\n      0x30\n      dup2\n      mstore\n      0x20\n      add\n      dup1\n      0x546865207365636f6e6420706172616d657465722073686f756c642062652067\n      dup2\n      mstore\n      0x20\n      add\n      0x726561746572207468616e207a65726f00000000000000000000000000000000\n      dup2\n      mstore\n      pop\n      0x40\n      add\n      swap2\n      pop\n      pop\n      mload(0x40)\n      dup1\n      swap2\n      sub\n      swap1\n      revert\n    tag_25:\n        /* \"calc.sol\":620:621  b */\n      dup2\n        /* \"calc.sol\":616:617  a */\n      dup4\n        /* \"calc.sol\":616:621  a / b */\n      dup2\n      iszero\n      iszero\n      tag_26\n      jumpi\n      invalid\n    tag_26:\n      sdiv\n        /* \"calc.sol\":604:613  lastvalue */\n      0x0\n        /* \"calc.sol\":604:621  lastvalue = a / b */\n      dup2\n      swap1\n      sstore\n      pop\n        /* \"calc.sol\":639:648  lastvalue */\n      sload(0x0)\n        /* \"calc.sol\":632:648  return lastvalue */\n      swap1\n      pop\n        /* \"calc.sol\":465:656  function Divide(int a, int b) public returns (int){\r... */\n      swap3\n      swap2\n      pop\n      pop\n      jump\t// out\n        /* \"calc.sol\":342:457  function Multiply(int a, int b) public returns (int){\r... */\n    tag_18:\n        /* \"calc.sol\":390:393  int */\n      0x0\n        /* \"calc.sol\":421:422  b */\n      dup2\n        /* \"calc.sol\":417:418  a */\n      dup4\n        /* \"calc.sol\":417:422  a * b */\n      mul\n        /* \"calc.sol\":405:414  lastvalue */\n      0x0\n        /* \"calc.sol\":405:422  lastvalue = a * b */\n      dup2\n      swap1\n      sstore\n      pop\n        /* \"calc.sol\":440:449  lastvalue */\n      sload(0x0)\n        /* \"calc.sol\":433:449  return lastvalue */\n      swap1\n      pop\n        /* \"calc.sol\":342:457  function Multiply(int a, int b) public returns (int){\r... */\n      swap3\n      swap2\n      pop\n      pop\n      jump\t// out\n        /* \"calc.sol\":664:754  function LastOperation() public constant returns (int) {\r... */\n    tag_21:\n        /* \"calc.sol\":714:717  int */\n      0x0\n        /* \"calc.sol\":737:746  lastvalue */\n      dup1\n      sload\n        /* \"calc.sol\":730:746  return lastvalue */\n      swap1\n      pop\n        /* \"calc.sol\":664:754  function LastOperation() public constant returns (int) {\r... */\n      swap1\n      jump\t// out\n\n    auxdata: 0xa165627a7a72305820360a13f11d5b62a670bac416c8ddd5e41a9dd64e55be45d15805feddcfa32a570029\n}\n",
				"bytecode": {
					"linkReferences": {},
					"object": "60806040526000805534801561001457600080fd5b506102fc806100246000396000f30060806040526004361061006d576000357c0100000000000000000000000000000000000000000000000000000000900463ffffffff1680633e21f39614610072578063830fb67c146100bd578063989c4f4314610108578063a062519d14610153578063d3507d711461019e575b600080fd5b34801561007e57600080fd5b506100a760048036038101908080359060200190929190803590602001909291905050506101c9565b6040518082815260200191505060405180910390f35b3480156100c957600080fd5b506100f260048036038101908080359060200190929190803590602001909291905050506101df565b6040518082815260200191505060405180910390f35b34801561011457600080fd5b5061013d60048036038101908080359060200190929190803590602001909291905050506101f5565b6040518082815260200191505060405180910390f35b34801561015f57600080fd5b5061018860048036038101908080359060200190929190803590602001909291905050506102b1565b6040518082815260200191505060405180910390f35b3480156101aa57600080fd5b506101b36102c7565b6040518082815260200191505060405180910390f35b6000818303600081905550600054905092915050565b6000818301600081905550600054905092915050565b60008082131515610294576040517f08c379a00000000000000000000000000000000000000000000000000000000081526004018080602001828103825260308152602001807f546865207365636f6e6420706172616d657465722073686f756c64206265206781526020017f726561746572207468616e207a65726f0000000000000000000000000000000081525060400191505060405180910390fd5b818381151561029f57fe5b05600081905550600054905092915050565b6000818302600081905550600054905092915050565b600080549050905600a165627a7a72305820360a13f11d5b62a670bac416c8ddd5e41a9dd64e55be45d15805feddcfa32a570029",
					"opcodes": "PUSH1 0x80 PUSH1 0x40 MSTORE PUSH1 0x0 DUP1 SSTORE CALLVALUE DUP1 ISZERO PUSH2 0x14 JUMPI PUSH1 0x0 DUP1 REVERT JUMPDEST POP PUSH2 0x2FC DUP1 PUSH2 0x24 PUSH1 0x0 CODECOPY PUSH1 0x0 RETURN STOP PUSH1 0x80 PUSH1 0x40 MSTORE PUSH1 0x4 CALLDATASIZE LT PUSH2 0x6D JUMPI PUSH1 0x0 CALLDATALOAD PUSH29 0x100000000000000000000000000000000000000000000000000000000 SWAP1 DIV PUSH4 0xFFFFFFFF AND DUP1 PUSH4 0x3E21F396 EQ PUSH2 0x72 JUMPI DUP1 PUSH4 0x830FB67C EQ PUSH2 0xBD JUMPI DUP1 PUSH4 0x989C4F43 EQ PUSH2 0x108 JUMPI DUP1 PUSH4 0xA062519D EQ PUSH2 0x153 JUMPI DUP1 PUSH4 0xD3507D71 EQ PUSH2 0x19E JUMPI JUMPDEST PUSH1 0x0 DUP1 REVERT JUMPDEST CALLVALUE DUP1 ISZERO PUSH2 0x7E JUMPI PUSH1 0x0 DUP1 REVERT JUMPDEST POP PUSH2 0xA7 PUSH1 0x4 DUP1 CALLDATASIZE SUB DUP2 ADD SWAP1 DUP1 DUP1 CALLDATALOAD SWAP1 PUSH1 0x20 ADD SWAP1 SWAP3 SWAP2 SWAP1 DUP1 CALLDATALOAD SWAP1 PUSH1 0x20 ADD SWAP1 SWAP3 SWAP2 SWAP1 POP POP POP PUSH2 0x1C9 JUMP JUMPDEST PUSH1 0x40 MLOAD DUP1 DUP3 DUP2 MSTORE PUSH1 0x20 ADD SWAP2 POP POP PUSH1 0x40 MLOAD DUP1 SWAP2 SUB SWAP1 RETURN JUMPDEST CALLVALUE DUP1 ISZERO PUSH2 0xC9 JUMPI PUSH1 0x0 DUP1 REVERT JUMPDEST POP PUSH2 0xF2 PUSH1 0x4 DUP1 CALLDATASIZE SUB DUP2 ADD SWAP1 DUP1 DUP1 CALLDATALOAD SWAP1 PUSH1 0x20 ADD SWAP1 SWAP3 SWAP2 SWAP1 DUP1 CALLDATALOAD SWAP1 PUSH1 0x20 ADD SWAP1 SWAP3 SWAP2 SWAP1 POP POP POP PUSH2 0x1DF JUMP JUMPDEST PUSH1 0x40 MLOAD DUP1 DUP3 DUP2 MSTORE PUSH1 0x20 ADD SWAP2 POP POP PUSH1 0x40 MLOAD DUP1 SWAP2 SUB SWAP1 RETURN JUMPDEST CALLVALUE DUP1 ISZERO PUSH2 0x114 JUMPI PUSH1 0x0 DUP1 REVERT JUMPDEST POP PUSH2 0x13D PUSH1 0x4 DUP1 CALLDATASIZE SUB DUP2 ADD SWAP1 DUP1 DUP1 CALLDATALOAD SWAP1 PUSH1 0x20 ADD SWAP1 SWAP3 SWAP2 SWAP1 DUP1 CALLDATALOAD SWAP1 PUSH1 0x20 ADD SWAP1 SWAP3 SWAP2 SWAP1 POP POP POP PUSH2 0x1F5 JUMP JUMPDEST PUSH1 0x40 MLOAD DUP1 DUP3 DUP2 MSTORE PUSH1 0x20 ADD SWAP2 POP POP PUSH1 0x40 MLOAD DUP1 SWAP2 SUB SWAP1 RETURN JUMPDEST CALLVALUE DUP1 ISZERO PUSH2 0x15F JUMPI PUSH1 0x0 DUP1 REVERT JUMPDEST POP PUSH2 0x188 PUSH1 0x4 DUP1 CALLDATASIZE SUB DUP2 ADD SWAP1 DUP1 DUP1 CALLDATALOAD SWAP1 PUSH1 0x20 ADD SWAP1 SWAP3 SWAP2 SWAP1 DUP1 CALLDATALOAD SWAP1 PUSH1 0x20 ADD SWAP1 SWAP3 SWAP2 SWAP1 POP POP POP PUSH2 0x2B1 JUMP JUMPDEST PUSH1 0x40 MLOAD DUP1 DUP3 DUP2 MSTORE PUSH1 0x20 ADD SWAP2 POP POP PUSH1 0x40 MLOAD DUP1 SWAP2 SUB SWAP1 RETURN JUMPDEST CALLVALUE DUP1 ISZERO PUSH2 0x1AA JUMPI PUSH1 0x0 DUP1 REVERT JUMPDEST POP PUSH2 0x1B3 PUSH2 0x2C7 JUMP JUMPDEST PUSH1 0x40 MLOAD DUP1 DUP3 DUP2 MSTORE PUSH1 0x20 ADD SWAP2 POP POP PUSH1 0x40 MLOAD DUP1 SWAP2 SUB SWAP1 RETURN JUMPDEST PUSH1 0x0 DUP2 DUP4 SUB PUSH1 0x0 DUP2 SWAP1 SSTORE POP PUSH1 0x0 SLOAD SWAP1 POP SWAP3 SWAP2 POP POP JUMP JUMPDEST PUSH1 0x0 DUP2 DUP4 ADD PUSH1 0x0 DUP2 SWAP1 SSTORE POP PUSH1 0x0 SLOAD SWAP1 POP SWAP3 SWAP2 POP POP JUMP JUMPDEST PUSH1 0x0 DUP1 DUP3 SGT ISZERO ISZERO PUSH2 0x294 JUMPI PUSH1 0x40 MLOAD PUSH32 0x8C379A000000000000000000000000000000000000000000000000000000000 DUP2 MSTORE PUSH1 0x4 ADD DUP1 DUP1 PUSH1 0x20 ADD DUP3 DUP2 SUB DUP3 MSTORE PUSH1 0x30 DUP2 MSTORE PUSH1 0x20 ADD DUP1 PUSH32 0x546865207365636F6E6420706172616D657465722073686F756C642062652067 DUP2 MSTORE PUSH1 0x20 ADD PUSH32 0x726561746572207468616E207A65726F00000000000000000000000000000000 DUP2 MSTORE POP PUSH1 0x40 ADD SWAP2 POP POP PUSH1 0x40 MLOAD DUP1 SWAP2 SUB SWAP1 REVERT JUMPDEST DUP2 DUP4 DUP2 ISZERO ISZERO PUSH2 0x29F JUMPI INVALID JUMPDEST SDIV PUSH1 0x0 DUP2 SWAP1 SSTORE POP PUSH1 0x0 SLOAD SWAP1 POP SWAP3 SWAP2 POP POP JUMP JUMPDEST PUSH1 0x0 DUP2 DUP4 MUL PUSH1 0x0 DUP2 SWAP1 SSTORE POP PUSH1 0x0 SLOAD SWAP1 POP SWAP3 SWAP2 POP POP JUMP JUMPDEST PUSH1 0x0 DUP1 SLOAD SWAP1 POP SWAP1 JUMP STOP LOG1 PUSH6 0x627A7A723058 KECCAK256 CALLDATASIZE EXP SGT CALL SAR JUMPDEST PUSH3 0xA670BA 0xc4 AND 0xc8 0xdd 0xd5 0xe4 BYTE SWAP14 0xd6 0x4e SSTORE 0xbe GASLIMIT 0xd1 PC SDIV INVALID 0xdd 0xcf LOG3 0x2a JUMPI STOP 0x29 "
				},
				"gasEstimates": {
					"creation": {
						"codeDepositCost": "152800",
						"executionCost": "5202",
						"totalCost": "158002"
					},
					"external": {
						"Add(int256,int256)": "20534",
						"Divide(int256,int256)": "20610",
						"LastOperation()": "490",
						"Multiply(int256,int256)": "20580",
						"Subtract(int256,int256)": "20512"
					}
				},
				"methodIdentifiers": {
					"Add(int256,int256)": "830fb67c",
					"Divide(int256,int256)": "989c4f43",
					"LastOperation()": "d3507d71",
					"Multiply(int256,int256)": "a062519d",
					"Subtract(int256,int256)": "3e21f396"
				}
			},
			"userdoc": {
				"methods": {}
			}
		}
	}
}