{
	"calc.sol": {
		"Calculator": {
			"abi": [
				{
					"constant": false,
					"inputs": [
						{
							"name": "a",
							"type": "int256"
						},
						{
							"name": "b",
							"type": "int256"
						}
					],
					"name": "Subtract",
					"outputs": [
						{
							"name": "",
							"type": "int256"
						}
					],
					"payable": false,
					"stateMutability": "nonpayable",
					"type": "function"
				},
				{
					"constant": false,
					"inputs": [
						{
							"name": "a",
							"type": "int256"
						},
						{
							"name": "b",
							"type": "int256"
						}
					],
					"name": "Add",
					"outputs": [
						{
							"name": "",
							"type": "int256"
						}
					],
					"payable": false,
					"stateMutability": "nonpayable",
					"type": "function"
				},
				{
					"constant": false,
					"inputs": [
						{
							"name": "a",
							"type": "int256"
						},
						{
							"name": "b",
							"type": "int256"
						}
					],
					"name": "Multiply",
					"outputs": [
						{
							"name": "",
							"type": "int256"
						}
					],
					"payable": false,
					"stateMutability": "nonpayable",
					"type": "function"
				},
				{
					"constant": false,
					"inputs": [
						{
							"name": "base",
							"type": "uint256"
						},
						{
							"name": "exponent",
							"type": "uint256"
						}
					],
					"name": "Exponent",
					"outputs": [
						{
							"name": "",
							"type": "uint256"
						}
					],
					"payable": false,
					"stateMutability": "nonpayable",
					"type": "function"
				},
				{
					"constant": false,
					"inputs": [
						{
							"name": "numerator",
							"type": "uint256"
						},
						{
							"name": "denominator",
							"type": "uint256"
						}
					],
					"name": "Divide",
					"outputs": [
						{
							"name": "",
							"type": "uint256"
						}
					],
					"payable": false,
					"stateMutability": "nonpayable",
					"type": "function"
				}
			],
			"devdoc": {
				"methods": {}
			},
			"evm": {
				"assembly": "    /* \"calc.sol\":28:849  contract Calculator {\r... */\n  mstore(0x40, 0x80)\n    /* \"calc.sol\":85:86  0 */\n  0x0\n    /* \"calc.sol\":61:86  int private lastvalue = 0 */\n  dup1\n  sstore\n    /* \"calc.sol\":122:123  0 */\n  0x0\n    /* \"calc.sol\":93:123  uint private lastuintvalue = 0 */\n  0x1\n  sstore\n    /* \"calc.sol\":28:849  contract Calculator {\r... */\n  callvalue\n    /* \"--CODEGEN--\":8:17   */\n  dup1\n    /* \"--CODEGEN--\":5:7   */\n  iszero\n  tag_1\n  jumpi\n    /* \"--CODEGEN--\":30:31   */\n  0x0\n    /* \"--CODEGEN--\":27:28   */\n  dup1\n    /* \"--CODEGEN--\":20:32   */\n  revert\n    /* \"--CODEGEN--\":5:7   */\ntag_1:\n    /* \"calc.sol\":28:849  contract Calculator {\r... */\n  pop\n  dataSize(sub_0)\n  dup1\n  dataOffset(sub_0)\n  0x0\n  codecopy\n  0x0\n  return\nstop\n\nsub_0: assembly {\n        /* \"calc.sol\":28:849  contract Calculator {\r... */\n      mstore(0x40, 0x80)\n      jumpi(tag_1, lt(calldatasize, 0x4))\n      calldataload(0x0)\n      0x100000000000000000000000000000000000000000000000000000000\n      swap1\n      div\n      0xffffffff\n      and\n      dup1\n      0x3e21f396\n      eq\n      tag_2\n      jumpi\n      dup1\n      0x830fb67c\n      eq\n      tag_3\n      jumpi\n      dup1\n      0xa062519d\n      eq\n      tag_4\n      jumpi\n      dup1\n      0xa0aaf05e\n      eq\n      tag_5\n      jumpi\n      dup1\n      0xb048546f\n      eq\n      tag_6\n      jumpi\n    tag_1:\n      0x0\n      dup1\n      revert\n        /* \"calc.sol\":255:371  function Subtract(int a, int b) public returns (int) {\r... */\n    tag_2:\n      callvalue\n        /* \"--CODEGEN--\":8:17   */\n      dup1\n        /* \"--CODEGEN--\":5:7   */\n      iszero\n      tag_7\n      jumpi\n        /* \"--CODEGEN--\":30:31   */\n      0x0\n        /* \"--CODEGEN--\":27:28   */\n      dup1\n        /* \"--CODEGEN--\":20:32   */\n      revert\n        /* \"--CODEGEN--\":5:7   */\n    tag_7:\n        /* \"calc.sol\":255:371  function Subtract(int a, int b) public returns (int) {\r... */\n      pop\n      tag_8\n      0x4\n      dup1\n      calldatasize\n      sub\n      dup2\n      add\n      swap1\n      dup1\n      dup1\n      calldataload\n      swap1\n      0x20\n      add\n      swap1\n      swap3\n      swap2\n      swap1\n      dup1\n      calldataload\n      swap1\n      0x20\n      add\n      swap1\n      swap3\n      swap2\n      swap1\n      pop\n      pop\n      pop\n      jump(tag_9)\n    tag_8:\n      mload(0x40)\n      dup1\n      dup3\n      dup2\n      mstore\n      0x20\n      add\n      swap2\n      pop\n      pop\n      mload(0x40)\n      dup1\n      swap2\n      sub\n      swap1\n      return\n        /* \"calc.sol\":132:243  function Add(int a, int b) public returns (int) {\r... */\n    tag_3:\n      callvalue\n        /* \"--CODEGEN--\":8:17   */\n      dup1\n        /* \"--CODEGEN--\":5:7   */\n      iszero\n      tag_10\n      jumpi\n        /* \"--CODEGEN--\":30:31   */\n      0x0\n        /* \"--CODEGEN--\":27:28   */\n      dup1\n        /* \"--CODEGEN--\":20:32   */\n      revert\n        /* \"--CODEGEN--\":5:7   */\n    tag_10:\n        /* \"calc.sol\":132:243  function Add(int a, int b) public returns (int) {\r... */\n      pop\n      tag_11\n      0x4\n      dup1\n      calldatasize\n      sub\n      dup2\n      add\n      swap1\n      dup1\n      dup1\n      calldataload\n      swap1\n      0x20\n      add\n      swap1\n      swap3\n      swap2\n      swap1\n      dup1\n      calldataload\n      swap1\n      0x20\n      add\n      swap1\n      swap3\n      swap2\n      swap1\n      pop\n      pop\n      pop\n      jump(tag_12)\n    tag_11:\n      mload(0x40)\n      dup1\n      dup3\n      dup2\n      mstore\n      0x20\n      add\n      swap2\n      pop\n      pop\n      mload(0x40)\n      dup1\n      swap2\n      sub\n      swap1\n      return\n        /* \"calc.sol\":379:494  function Multiply(int a, int b) public returns (int){\r... */\n    tag_4:\n      callvalue\n        /* \"--CODEGEN--\":8:17   */\n      dup1\n        /* \"--CODEGEN--\":5:7   */\n      iszero\n      tag_13\n      jumpi\n        /* \"--CODEGEN--\":30:31   */\n      0x0\n        /* \"--CODEGEN--\":27:28   */\n      dup1\n        /* \"--CODEGEN--\":20:32   */\n      revert\n        /* \"--CODEGEN--\":5:7   */\n    tag_13:\n        /* \"calc.sol\":379:494  function Multiply(int a, int b) public returns (int){\r... */\n      pop\n      tag_14\n      0x4\n      dup1\n      calldatasize\n      sub\n      dup2\n      add\n      swap1\n      dup1\n      dup1\n      calldataload\n      swap1\n      0x20\n      add\n      swap1\n      swap3\n      swap2\n      swap1\n      dup1\n      calldataload\n      swap1\n      0x20\n      add\n      swap1\n      swap3\n      swap2\n      swap1\n      pop\n      pop\n      pop\n      jump(tag_15)\n    tag_14:\n      mload(0x40)\n      dup1\n      dup3\n      dup2\n      mstore\n      0x20\n      add\n      swap2\n      pop\n      pop\n      mload(0x40)\n      dup1\n      swap2\n      sub\n      swap1\n      return\n        /* \"calc.sol\":696:846  function Exponent(uint base, uint exponent) public returns (uint){\r... */\n    tag_5:\n      callvalue\n        /* \"--CODEGEN--\":8:17   */\n      dup1\n        /* \"--CODEGEN--\":5:7   */\n      iszero\n      tag_16\n      jumpi\n        /* \"--CODEGEN--\":30:31   */\n      0x0\n        /* \"--CODEGEN--\":27:28   */\n      dup1\n        /* \"--CODEGEN--\":20:32   */\n      revert\n        /* \"--CODEGEN--\":5:7   */\n    tag_16:\n        /* \"calc.sol\":696:846  function Exponent(uint base, uint exponent) public returns (uint){\r... */\n      pop\n      tag_17\n      0x4\n      dup1\n      calldatasize\n      sub\n      dup2\n      add\n      swap1\n      dup1\n      dup1\n      calldataload\n      swap1\n      0x20\n      add\n      swap1\n      swap3\n      swap2\n      swap1\n      dup1\n      calldataload\n      swap1\n      0x20\n      add\n      swap1\n      swap3\n      swap2\n      swap1\n      pop\n      pop\n      pop\n      jump(tag_18)\n    tag_17:\n      mload(0x40)\n      dup1\n      dup3\n      dup2\n      mstore\n      0x20\n      add\n      swap2\n      pop\n      pop\n      mload(0x40)\n      dup1\n      swap2\n      sub\n      swap1\n      return\n        /* \"calc.sol\":502:688  function Divide(uint numerator, uint denominator) public returns (uint){\r... */\n    tag_6:\n      callvalue\n        /* \"--CODEGEN--\":8:17   */\n      dup1\n        /* \"--CODEGEN--\":5:7   */\n      iszero\n      tag_19\n      jumpi\n        /* \"--CODEGEN--\":30:31   */\n      0x0\n        /* \"--CODEGEN--\":27:28   */\n      dup1\n        /* \"--CODEGEN--\":20:32   */\n      revert\n        /* \"--CODEGEN--\":5:7   */\n    tag_19:\n        /* \"calc.sol\":502:688  function Divide(uint numerator, uint denominator) public returns (uint){\r... */\n      pop\n      tag_20\n      0x4\n      dup1\n      calldatasize\n      sub\n      dup2\n      add\n      swap1\n      dup1\n      dup1\n      calldataload\n      swap1\n      0x20\n      add\n      swap1\n      swap3\n      swap2\n      swap1\n      dup1\n      calldataload\n      swap1\n      0x20\n      add\n      swap1\n      swap3\n      swap2\n      swap1\n      pop\n      pop\n      pop\n      jump(tag_21)\n    tag_20:\n      mload(0x40)\n      dup1\n      dup3\n      dup2\n      mstore\n      0x20\n      add\n      swap2\n      pop\n      pop\n      mload(0x40)\n      dup1\n      swap2\n      sub\n      swap1\n      return\n        /* \"calc.sol\":255:371  function Subtract(int a, int b) public returns (int) {\r... */\n    tag_9:\n        /* \"calc.sol\":303:306  int */\n      0x0\n        /* \"calc.sol\":335:336  b */\n      dup2\n        /* \"calc.sol\":331:332  a */\n      dup4\n        /* \"calc.sol\":331:336  a - b */\n      sub\n        /* \"calc.sol\":319:328  lastvalue */\n      0x0\n        /* \"calc.sol\":319:336  lastvalue = a - b */\n      dup2\n      swap1\n      sstore\n      pop\n        /* \"calc.sol\":354:363  lastvalue */\n      sload(0x0)\n        /* \"calc.sol\":347:363  return lastvalue */\n      swap1\n      pop\n        /* \"calc.sol\":255:371  function Subtract(int a, int b) public returns (int) {\r... */\n      swap3\n      swap2\n      pop\n      pop\n      jump\t// out\n        /* \"calc.sol\":132:243  function Add(int a, int b) public returns (int) {\r... */\n    tag_12:\n        /* \"calc.sol\":175:178  int */\n      0x0\n        /* \"calc.sol\":207:208  b */\n      dup2\n        /* \"calc.sol\":203:204  a */\n      dup4\n        /* \"calc.sol\":203:208  a + b */\n      add\n        /* \"calc.sol\":191:200  lastvalue */\n      0x0\n        /* \"calc.sol\":191:208  lastvalue = a + b */\n      dup2\n      swap1\n      sstore\n      pop\n        /* \"calc.sol\":226:235  lastvalue */\n      sload(0x0)\n        /* \"calc.sol\":219:235  return lastvalue */\n      swap1\n      pop\n        /* \"calc.sol\":132:243  function Add(int a, int b) public returns (int) {\r... */\n      swap3\n      swap2\n      pop\n      pop\n      jump\t// out\n        /* \"calc.sol\":379:494  function Multiply(int a, int b) public returns (int){\r... */\n    tag_15:\n        /* \"calc.sol\":427:430  int */\n      0x0\n        /* \"calc.sol\":458:459  b */\n      dup2\n        /* \"calc.sol\":454:455  a */\n      dup4\n        /* \"calc.sol\":454:459  a * b */\n      mul\n        /* \"calc.sol\":442:451  lastvalue */\n      0x0\n        /* \"calc.sol\":442:459  lastvalue = a * b */\n      dup2\n      swap1\n      sstore\n      pop\n        /* \"calc.sol\":477:486  lastvalue */\n      sload(0x0)\n        /* \"calc.sol\":470:486  return lastvalue */\n      swap1\n      pop\n        /* \"calc.sol\":379:494  function Multiply(int a, int b) public returns (int){\r... */\n      swap3\n      swap2\n      pop\n      pop\n      jump\t// out\n        /* \"calc.sol\":696:846  function Exponent(uint base, uint exponent) public returns (uint){\r... */\n    tag_18:\n        /* \"calc.sol\":756:760  uint */\n      0x0\n        /* \"calc.sol\":796:804  exponent */\n      dup2\n        /* \"calc.sol\":788:792  base */\n      dup4\n        /* \"calc.sol\":788:804  base ** exponent */\n      exp\n        /* \"calc.sol\":772:785  lastuintvalue */\n      0x1\n        /* \"calc.sol\":772:804  lastuintvalue = base ** exponent */\n      dup2\n      swap1\n      sstore\n      pop\n        /* \"calc.sol\":830:838  exponent */\n      dup2\n        /* \"calc.sol\":822:826  base */\n      dup4\n        /* \"calc.sol\":822:838  base ** exponent */\n      exp\n        /* \"calc.sol\":815:838  return base ** exponent */\n      swap1\n      pop\n        /* \"calc.sol\":696:846  function Exponent(uint base, uint exponent) public returns (uint){\r... */\n      swap3\n      swap2\n      pop\n      pop\n      jump\t// out\n        /* \"calc.sol\":502:688  function Divide(uint numerator, uint denominator) public returns (uint){\r... */\n    tag_21:\n        /* \"calc.sol\":568:572  uint */\n      0x0\n        /* \"calc.sol\":646:648  10 */\n      0xa\n        /* \"calc.sol\":628:639  denominator */\n      dup3\n        /* \"calc.sol\":623:625  19 */\n      0x13\n        /* \"calc.sol\":617:619  10 */\n      0xa\n        /* \"calc.sol\":612:626  uint(10)**(19) */\n      exp\n        /* \"calc.sol\":601:610  numerator */\n      dup6\n        /* \"calc.sol\":601:627  numerator*(uint(10)**(19)) */\n      mul\n        /* \"calc.sol\":601:639  numerator*(uint(10)**(19))/denominator */\n      dup2\n      iszero\n      iszero\n      tag_27\n      jumpi\n      invalid\n    tag_27:\n      div\n        /* \"calc.sol\":600:649  (numerator*(uint(10)**(19))/denominator)/uint(10) */\n      dup2\n      iszero\n      iszero\n      tag_28\n      jumpi\n      invalid\n    tag_28:\n      div\n        /* \"calc.sol\":584:597  lastuintvalue */\n      0x1\n        /* \"calc.sol\":584:649  lastuintvalue = (numerator*(uint(10)**(19))/denominator)/uint(10) */\n      dup2\n      swap1\n      sstore\n      pop\n        /* \"calc.sol\":667:680  lastuintvalue */\n      sload(0x1)\n        /* \"calc.sol\":660:680  return lastuintvalue */\n      swap1\n      pop\n        /* \"calc.sol\":502:688  function Divide(uint numerator, uint denominator) public returns (uint){\r... */\n      swap3\n      swap2\n      pop\n      pop\n      jump\t// out\n\n    auxdata: 0xa165627a7a72305820f330bbe947cfa7447d5ed9334a1699b9e5fc3c9a3db152d9d5cbbbc9608dbd240029\n}\n",
				"bytecode": {
					"linkReferences": {},
					"object": "608060405260008055600060015534801561001957600080fd5b5061029e806100296000396000f30060806040526004361061006d576000357c0100000000000000000000000000000000000000000000000000000000900463ffffffff1680633e21f39614610072578063830fb67c146100bd578063a062519d14610108578063a0aaf05e14610153578063b048546f1461019e575b600080fd5b34801561007e57600080fd5b506100a760048036038101908080359060200190929190803590602001909291905050506101e9565b6040518082815260200191505060405180910390f35b3480156100c957600080fd5b506100f260048036038101908080359060200190929190803590602001909291905050506101ff565b6040518082815260200191505060405180910390f35b34801561011457600080fd5b5061013d6004803603810190808035906020019092919080359060200190929190505050610215565b6040518082815260200191505060405180910390f35b34801561015f57600080fd5b50610188600480360381019080803590602001909291908035906020019092919050505061022b565b6040518082815260200191505060405180910390f35b3480156101aa57600080fd5b506101d36004803603810190808035906020019092919080359060200190929190505050610241565b6040518082815260200191505060405180910390f35b6000818303600081905550600054905092915050565b6000818301600081905550600054905092915050565b6000818302600081905550600054905092915050565b600081830a60018190555081830a905092915050565b6000600a826013600a0a850281151561025657fe5b0481151561026057fe5b046001819055506001549050929150505600a165627a7a72305820f330bbe947cfa7447d5ed9334a1699b9e5fc3c9a3db152d9d5cbbbc9608dbd240029",
					"opcodes": "PUSH1 0x80 PUSH1 0x40 MSTORE PUSH1 0x0 DUP1 SSTORE PUSH1 0x0 PUSH1 0x1 SSTORE CALLVALUE DUP1 ISZERO PUSH2 0x19 JUMPI PUSH1 0x0 DUP1 REVERT JUMPDEST POP PUSH2 0x29E DUP1 PUSH2 0x29 PUSH1 0x0 CODECOPY PUSH1 0x0 RETURN STOP PUSH1 0x80 PUSH1 0x40 MSTORE PUSH1 0x4 CALLDATASIZE LT PUSH2 0x6D JUMPI PUSH1 0x0 CALLDATALOAD PUSH29 0x100000000000000000000000000000000000000000000000000000000 SWAP1 DIV PUSH4 0xFFFFFFFF AND DUP1 PUSH4 0x3E21F396 EQ PUSH2 0x72 JUMPI DUP1 PUSH4 0x830FB67C EQ PUSH2 0xBD JUMPI DUP1 PUSH4 0xA062519D EQ PUSH2 0x108 JUMPI DUP1 PUSH4 0xA0AAF05E EQ PUSH2 0x153 JUMPI DUP1 PUSH4 0xB048546F EQ PUSH2 0x19E JUMPI JUMPDEST PUSH1 0x0 DUP1 REVERT JUMPDEST CALLVALUE DUP1 ISZERO PUSH2 0x7E JUMPI PUSH1 0x0 DUP1 REVERT JUMPDEST POP PUSH2 0xA7 PUSH1 0x4 DUP1 CALLDATASIZE SUB DUP2 ADD SWAP1 DUP1 DUP1 CALLDATALOAD SWAP1 PUSH1 0x20 ADD SWAP1 SWAP3 SWAP2 SWAP1 DUP1 CALLDATALOAD SWAP1 PUSH1 0x20 ADD SWAP1 SWAP3 SWAP2 SWAP1 POP POP POP PUSH2 0x1E9 JUMP JUMPDEST PUSH1 0x40 MLOAD DUP1 DUP3 DUP2 MSTORE PUSH1 0x20 ADD SWAP2 POP POP PUSH1 0x40 MLOAD DUP1 SWAP2 SUB SWAP1 RETURN JUMPDEST CALLVALUE DUP1 ISZERO PUSH2 0xC9 JUMPI PUSH1 0x0 DUP1 REVERT JUMPDEST POP PUSH2 0xF2 PUSH1 0x4 DUP1 CALLDATASIZE SUB DUP2 ADD SWAP1 DUP1 DUP1 CALLDATALOAD SWAP1 PUSH1 0x20 ADD SWAP1 SWAP3 SWAP2 SWAP1 DUP1 CALLDATALOAD SWAP1 PUSH1 0x20 ADD SWAP1 SWAP3 SWAP2 SWAP1 POP POP POP PUSH2 0x1FF JUMP JUMPDEST PUSH1 0x40 MLOAD DUP1 DUP3 DUP2 MSTORE PUSH1 0x20 ADD SWAP2 POP POP PUSH1 0x40 MLOAD DUP1 SWAP2 SUB SWAP1 RETURN JUMPDEST CALLVALUE DUP1 ISZERO PUSH2 0x114 JUMPI PUSH1 0x0 DUP1 REVERT JUMPDEST POP PUSH2 0x13D PUSH1 0x4 DUP1 CALLDATASIZE SUB DUP2 ADD SWAP1 DUP1 DUP1 CALLDATALOAD SWAP1 PUSH1 0x20 ADD SWAP1 SWAP3 SWAP2 SWAP1 DUP1 CALLDATALOAD SWAP1 PUSH1 0x20 ADD SWAP1 SWAP3 SWAP2 SWAP1 POP POP POP PUSH2 0x215 JUMP JUMPDEST PUSH1 0x40 MLOAD DUP1 DUP3 DUP2 MSTORE PUSH1 0x20 ADD SWAP2 POP POP PUSH1 0x40 MLOAD DUP1 SWAP2 SUB SWAP1 RETURN JUMPDEST CALLVALUE DUP1 ISZERO PUSH2 0x15F JUMPI PUSH1 0x0 DUP1 REVERT JUMPDEST POP PUSH2 0x188 PUSH1 0x4 DUP1 CALLDATASIZE SUB DUP2 ADD SWAP1 DUP1 DUP1 CALLDATALOAD SWAP1 PUSH1 0x20 ADD SWAP1 SWAP3 SWAP2 SWAP1 DUP1 CALLDATALOAD SWAP1 PUSH1 0x20 ADD SWAP1 SWAP3 SWAP2 SWAP1 POP POP POP PUSH2 0x22B JUMP JUMPDEST PUSH1 0x40 MLOAD DUP1 DUP3 DUP2 MSTORE PUSH1 0x20 ADD SWAP2 POP POP PUSH1 0x40 MLOAD DUP1 SWAP2 SUB SWAP1 RETURN JUMPDEST CALLVALUE DUP1 ISZERO PUSH2 0x1AA JUMPI PUSH1 0x0 DUP1 REVERT JUMPDEST POP PUSH2 0x1D3 PUSH1 0x4 DUP1 CALLDATASIZE SUB DUP2 ADD SWAP1 DUP1 DUP1 CALLDATALOAD SWAP1 PUSH1 0x20 ADD SWAP1 SWAP3 SWAP2 SWAP1 DUP1 CALLDATALOAD SWAP1 PUSH1 0x20 ADD SWAP1 SWAP3 SWAP2 SWAP1 POP POP POP PUSH2 0x241 JUMP JUMPDEST PUSH1 0x40 MLOAD DUP1 DUP3 DUP2 MSTORE PUSH1 0x20 ADD SWAP2 POP POP PUSH1 0x40 MLOAD DUP1 SWAP2 SUB SWAP1 RETURN JUMPDEST PUSH1 0x0 DUP2 DUP4 SUB PUSH1 0x0 DUP2 SWAP1 SSTORE POP PUSH1 0x0 SLOAD SWAP1 POP SWAP3 SWAP2 POP POP JUMP JUMPDEST PUSH1 0x0 DUP2 DUP4 ADD PUSH1 0x0 DUP2 SWAP1 SSTORE POP PUSH1 0x0 SLOAD SWAP1 POP SWAP3 SWAP2 POP POP JUMP JUMPDEST PUSH1 0x0 DUP2 DUP4 MUL PUSH1 0x0 DUP2 SWAP1 SSTORE POP PUSH1 0x0 SLOAD SWAP1 POP SWAP3 SWAP2 POP POP JUMP JUMPDEST PUSH1 0x0 DUP2 DUP4 EXP PUSH1 0x1 DUP2 SWAP1 SSTORE POP DUP2 DUP4 EXP SWAP1 POP SWAP3 SWAP2 POP POP JUMP JUMPDEST PUSH1 0x0 PUSH1 0xA DUP3 PUSH1 0x13 PUSH1 0xA EXP DUP6 MUL DUP2 ISZERO ISZERO PUSH2 0x256 JUMPI INVALID JUMPDEST DIV DUP2 ISZERO ISZERO PUSH2 0x260 JUMPI INVALID JUMPDEST DIV PUSH1 0x1 DUP2 SWAP1 SSTORE POP PUSH1 0x1 SLOAD SWAP1 POP SWAP3 SWAP2 POP POP JUMP STOP LOG1 PUSH6 0x627A7A723058 KECCAK256 RETURN ADDRESS 0xbb 0xe9 0x47 0xcf 0xa7 DIFFICULTY PUSH30 0x5ED9334A1699B9E5FC3C9A3DB152D9D5CBBBC9608DBD2400290000000000 "
				},
				"gasEstimates": {
					"creation": {
						"codeDepositCost": "134000",
						"executionCost": "10189",
						"totalCost": "144189"
					},
					"external": {
						"Add(int256,int256)": "20534",
						"Divide(uint256,uint256)": "20727",
						"Exponent(uint256,uint256)": "23598",
						"Multiply(int256,int256)": "20558",
						"Subtract(int256,int256)": "20512"
					}
				},
				"methodIdentifiers": {
					"Add(int256,int256)": "830fb67c",
					"Divide(uint256,uint256)": "b048546f",
					"Exponent(uint256,uint256)": "a0aaf05e",
					"Multiply(int256,int256)": "a062519d",
					"Subtract(int256,int256)": "3e21f396"
				}
			},
			"userdoc": {
				"methods": {}
			}
		}
	}
}