{
	"calc.sol": {
		"Calculator": {
			"abi": [
				{
					"constant": false,
					"inputs": [
						{
							"name": "a",
							"type": "uint256"
						},
						{
							"name": "b",
							"type": "uint256"
						}
					],
					"name": "Subtract",
					"outputs": [
						{
							"name": "",
							"type": "uint256"
						}
					],
					"payable": false,
					"stateMutability": "nonpayable",
					"type": "function"
				},
				{
					"constant": false,
					"inputs": [
						{
							"name": "a",
							"type": "uint256"
						},
						{
							"name": "b",
							"type": "uint256"
						}
					],
					"name": "Add",
					"outputs": [
						{
							"name": "",
							"type": "uint256"
						}
					],
					"payable": false,
					"stateMutability": "nonpayable",
					"type": "function"
				},
				{
					"constant": false,
					"inputs": [
						{
							"name": "a",
							"type": "uint256"
						},
						{
							"name": "b",
							"type": "uint256"
						}
					],
					"name": "Exponent",
					"outputs": [
						{
							"name": "",
							"type": "uint256"
						}
					],
					"payable": false,
					"stateMutability": "nonpayable",
					"type": "function"
				},
				{
					"constant": false,
					"inputs": [
						{
							"name": "a",
							"type": "uint256"
						},
						{
							"name": "b",
							"type": "uint256"
						}
					],
					"name": "Divide",
					"outputs": [
						{
							"name": "",
							"type": "uint256"
						}
					],
					"payable": false,
					"stateMutability": "nonpayable",
					"type": "function"
				},
				{
					"constant": true,
					"inputs": [],
					"name": "LastOperation",
					"outputs": [
						{
							"name": "",
							"type": "uint256"
						}
					],
					"payable": false,
					"stateMutability": "view",
					"type": "function"
				},
				{
					"constant": false,
					"inputs": [
						{
							"name": "a",
							"type": "uint256"
						},
						{
							"name": "b",
							"type": "uint256"
						}
					],
					"name": "Multiply",
					"outputs": [
						{
							"name": "",
							"type": "uint256"
						}
					],
					"payable": false,
					"stateMutability": "nonpayable",
					"type": "function"
				}
			],
			"devdoc": {
				"methods": {}
			},
			"evm": {
				"assembly": "    /* \"calc.sol\":28:898  contract Calculator {\r... */\n  mstore(0x40, 0x80)\n    /* \"calc.sol\":86:87  0 */\n  0x0\n    /* \"calc.sol\":61:87  uint private lastvalue = 0 */\n  dup1\n  sstore\n    /* \"calc.sol\":28:898  contract Calculator {\r... */\n  callvalue\n    /* \"--CODEGEN--\":8:17   */\n  dup1\n    /* \"--CODEGEN--\":5:7   */\n  iszero\n  tag_1\n  jumpi\n    /* \"--CODEGEN--\":30:31   */\n  0x0\n    /* \"--CODEGEN--\":27:28   */\n  dup1\n    /* \"--CODEGEN--\":20:32   */\n  revert\n    /* \"--CODEGEN--\":5:7   */\ntag_1:\n    /* \"calc.sol\":28:898  contract Calculator {\r... */\n  pop\n  dataSize(sub_0)\n  dup1\n  dataOffset(sub_0)\n  0x0\n  codecopy\n  0x0\n  return\nstop\n\nsub_0: assembly {\n        /* \"calc.sol\":28:898  contract Calculator {\r... */\n      mstore(0x40, 0x80)\n      jumpi(tag_1, lt(calldatasize, 0x4))\n      calldataload(0x0)\n      0x100000000000000000000000000000000000000000000000000000000\n      swap1\n      div\n      0xffffffff\n      and\n      dup1\n      0x2e7c409b\n      eq\n      tag_2\n      jumpi\n      dup1\n      0x7afbe4f1\n      eq\n      tag_3\n      jumpi\n      dup1\n      0xa0aaf05e\n      eq\n      tag_4\n      jumpi\n      dup1\n      0xb048546f\n      eq\n      tag_5\n      jumpi\n      dup1\n      0xd3507d71\n      eq\n      tag_6\n      jumpi\n      dup1\n      0xf8eac151\n      eq\n      tag_7\n      jumpi\n    tag_1:\n      0x0\n      dup1\n      revert\n        /* \"calc.sol\":222:341  function Subtract(uint a, uint b) public returns (uint) {\r... */\n    tag_2:\n      callvalue\n        /* \"--CODEGEN--\":8:17   */\n      dup1\n        /* \"--CODEGEN--\":5:7   */\n      iszero\n      tag_8\n      jumpi\n        /* \"--CODEGEN--\":30:31   */\n      0x0\n        /* \"--CODEGEN--\":27:28   */\n      dup1\n        /* \"--CODEGEN--\":20:32   */\n      revert\n        /* \"--CODEGEN--\":5:7   */\n    tag_8:\n        /* \"calc.sol\":222:341  function Subtract(uint a, uint b) public returns (uint) {\r... */\n      pop\n      tag_9\n      0x4\n      dup1\n      calldatasize\n      sub\n      dup2\n      add\n      swap1\n      dup1\n      dup1\n      calldataload\n      swap1\n      0x20\n      add\n      swap1\n      swap3\n      swap2\n      swap1\n      dup1\n      calldataload\n      swap1\n      0x20\n      add\n      swap1\n      swap3\n      swap2\n      swap1\n      pop\n      pop\n      pop\n      jump(tag_10)\n    tag_9:\n      mload(0x40)\n      dup1\n      dup3\n      dup2\n      mstore\n      0x20\n      add\n      swap2\n      pop\n      pop\n      mload(0x40)\n      dup1\n      swap2\n      sub\n      swap1\n      return\n        /* \"calc.sol\":96:210  function Add(uint a, uint b) public returns (uint) {\r... */\n    tag_3:\n      callvalue\n        /* \"--CODEGEN--\":8:17   */\n      dup1\n        /* \"--CODEGEN--\":5:7   */\n      iszero\n      tag_11\n      jumpi\n        /* \"--CODEGEN--\":30:31   */\n      0x0\n        /* \"--CODEGEN--\":27:28   */\n      dup1\n        /* \"--CODEGEN--\":20:32   */\n      revert\n        /* \"--CODEGEN--\":5:7   */\n    tag_11:\n        /* \"calc.sol\":96:210  function Add(uint a, uint b) public returns (uint) {\r... */\n      pop\n      tag_12\n      0x4\n      dup1\n      calldatasize\n      sub\n      dup2\n      add\n      swap1\n      dup1\n      dup1\n      calldataload\n      swap1\n      0x20\n      add\n      swap1\n      swap3\n      swap2\n      swap1\n      dup1\n      calldataload\n      swap1\n      0x20\n      add\n      swap1\n      swap3\n      swap2\n      swap1\n      pop\n      pop\n      pop\n      jump(tag_13)\n    tag_12:\n      mload(0x40)\n      dup1\n      dup3\n      dup2\n      mstore\n      0x20\n      add\n      swap2\n      pop\n      pop\n      mload(0x40)\n      dup1\n      swap2\n      sub\n      swap1\n      return\n        /* \"calc.sol\":677:796  function Exponent(uint a, uint b) public returns (uint){\r... */\n    tag_4:\n      callvalue\n        /* \"--CODEGEN--\":8:17   */\n      dup1\n        /* \"--CODEGEN--\":5:7   */\n      iszero\n      tag_14\n      jumpi\n        /* \"--CODEGEN--\":30:31   */\n      0x0\n        /* \"--CODEGEN--\":27:28   */\n      dup1\n        /* \"--CODEGEN--\":20:32   */\n      revert\n        /* \"--CODEGEN--\":5:7   */\n    tag_14:\n        /* \"calc.sol\":677:796  function Exponent(uint a, uint b) public returns (uint){\r... */\n      pop\n      tag_15\n      0x4\n      dup1\n      calldatasize\n      sub\n      dup2\n      add\n      swap1\n      dup1\n      dup1\n      calldataload\n      swap1\n      0x20\n      add\n      swap1\n      swap3\n      swap2\n      swap1\n      dup1\n      calldataload\n      swap1\n      0x20\n      add\n      swap1\n      swap3\n      swap2\n      swap1\n      pop\n      pop\n      pop\n      jump(tag_16)\n    tag_15:\n      mload(0x40)\n      dup1\n      dup3\n      dup2\n      mstore\n      0x20\n      add\n      swap2\n      pop\n      pop\n      mload(0x40)\n      dup1\n      swap2\n      sub\n      swap1\n      return\n        /* \"calc.sol\":475:669  function Divide(uint a, uint b) public returns (uint){\r... */\n    tag_5:\n      callvalue\n        /* \"--CODEGEN--\":8:17   */\n      dup1\n        /* \"--CODEGEN--\":5:7   */\n      iszero\n      tag_17\n      jumpi\n        /* \"--CODEGEN--\":30:31   */\n      0x0\n        /* \"--CODEGEN--\":27:28   */\n      dup1\n        /* \"--CODEGEN--\":20:32   */\n      revert\n        /* \"--CODEGEN--\":5:7   */\n    tag_17:\n        /* \"calc.sol\":475:669  function Divide(uint a, uint b) public returns (uint){\r... */\n      pop\n      tag_18\n      0x4\n      dup1\n      calldatasize\n      sub\n      dup2\n      add\n      swap1\n      dup1\n      dup1\n      calldataload\n      swap1\n      0x20\n      add\n      swap1\n      swap3\n      swap2\n      swap1\n      dup1\n      calldataload\n      swap1\n      0x20\n      add\n      swap1\n      swap3\n      swap2\n      swap1\n      pop\n      pop\n      pop\n      jump(tag_19)\n    tag_18:\n      mload(0x40)\n      dup1\n      dup3\n      dup2\n      mstore\n      0x20\n      add\n      swap2\n      pop\n      pop\n      mload(0x40)\n      dup1\n      swap2\n      sub\n      swap1\n      return\n        /* \"calc.sol\":804:895  function LastOperation() public constant returns (uint) {\r... */\n    tag_6:\n      callvalue\n        /* \"--CODEGEN--\":8:17   */\n      dup1\n        /* \"--CODEGEN--\":5:7   */\n      iszero\n      tag_20\n      jumpi\n        /* \"--CODEGEN--\":30:31   */\n      0x0\n        /* \"--CODEGEN--\":27:28   */\n      dup1\n        /* \"--CODEGEN--\":20:32   */\n      revert\n        /* \"--CODEGEN--\":5:7   */\n    tag_20:\n        /* \"calc.sol\":804:895  function LastOperation() public constant returns (uint) {\r... */\n      pop\n      tag_21\n      jump(tag_22)\n    tag_21:\n      mload(0x40)\n      dup1\n      dup3\n      dup2\n      mstore\n      0x20\n      add\n      swap2\n      pop\n      pop\n      mload(0x40)\n      dup1\n      swap2\n      sub\n      swap1\n      return\n        /* \"calc.sol\":349:467  function Multiply(uint a, uint b) public returns (uint){\r... */\n    tag_7:\n      callvalue\n        /* \"--CODEGEN--\":8:17   */\n      dup1\n        /* \"--CODEGEN--\":5:7   */\n      iszero\n      tag_23\n      jumpi\n        /* \"--CODEGEN--\":30:31   */\n      0x0\n        /* \"--CODEGEN--\":27:28   */\n      dup1\n        /* \"--CODEGEN--\":20:32   */\n      revert\n        /* \"--CODEGEN--\":5:7   */\n    tag_23:\n        /* \"calc.sol\":349:467  function Multiply(uint a, uint b) public returns (uint){\r... */\n      pop\n      tag_24\n      0x4\n      dup1\n      calldatasize\n      sub\n      dup2\n      add\n      swap1\n      dup1\n      dup1\n      calldataload\n      swap1\n      0x20\n      add\n      swap1\n      swap3\n      swap2\n      swap1\n      dup1\n      calldataload\n      swap1\n      0x20\n      add\n      swap1\n      swap3\n      swap2\n      swap1\n      pop\n      pop\n      pop\n      jump(tag_25)\n    tag_24:\n      mload(0x40)\n      dup1\n      dup3\n      dup2\n      mstore\n      0x20\n      add\n      swap2\n      pop\n      pop\n      mload(0x40)\n      dup1\n      swap2\n      sub\n      swap1\n      return\n        /* \"calc.sol\":222:341  function Subtract(uint a, uint b) public returns (uint) {\r... */\n    tag_10:\n        /* \"calc.sol\":272:276  uint */\n      0x0\n        /* \"calc.sol\":305:306  b */\n      dup2\n        /* \"calc.sol\":301:302  a */\n      dup4\n        /* \"calc.sol\":301:306  a - b */\n      sub\n        /* \"calc.sol\":289:298  lastvalue */\n      0x0\n        /* \"calc.sol\":289:306  lastvalue = a - b */\n      dup2\n      swap1\n      sstore\n      pop\n        /* \"calc.sol\":324:333  lastvalue */\n      sload(0x0)\n        /* \"calc.sol\":317:333  return lastvalue */\n      swap1\n      pop\n        /* \"calc.sol\":222:341  function Subtract(uint a, uint b) public returns (uint) {\r... */\n      swap3\n      swap2\n      pop\n      pop\n      jump\t// out\n        /* \"calc.sol\":96:210  function Add(uint a, uint b) public returns (uint) {\r... */\n    tag_13:\n        /* \"calc.sol\":141:145  uint */\n      0x0\n        /* \"calc.sol\":174:175  b */\n      dup2\n        /* \"calc.sol\":170:171  a */\n      dup4\n        /* \"calc.sol\":170:175  a + b */\n      add\n        /* \"calc.sol\":158:167  lastvalue */\n      0x0\n        /* \"calc.sol\":158:175  lastvalue = a + b */\n      dup2\n      swap1\n      sstore\n      pop\n        /* \"calc.sol\":193:202  lastvalue */\n      sload(0x0)\n        /* \"calc.sol\":186:202  return lastvalue */\n      swap1\n      pop\n        /* \"calc.sol\":96:210  function Add(uint a, uint b) public returns (uint) {\r... */\n      swap3\n      swap2\n      pop\n      pop\n      jump\t// out\n        /* \"calc.sol\":677:796  function Exponent(uint a, uint b) public returns (uint){\r... */\n    tag_16:\n        /* \"calc.sol\":727:731  uint */\n      0x0\n        /* \"calc.sol\":760:761  b */\n      dup2\n        /* \"calc.sol\":755:756  a */\n      dup4\n        /* \"calc.sol\":755:761  a ** b */\n      exp\n        /* \"calc.sol\":743:752  lastvalue */\n      0x0\n        /* \"calc.sol\":743:761  lastvalue = a ** b */\n      dup2\n      swap1\n      sstore\n      pop\n        /* \"calc.sol\":779:788  lastvalue */\n      sload(0x0)\n        /* \"calc.sol\":772:788  return lastvalue */\n      swap1\n      pop\n        /* \"calc.sol\":677:796  function Exponent(uint a, uint b) public returns (uint){\r... */\n      swap3\n      swap2\n      pop\n      pop\n      jump\t// out\n        /* \"calc.sol\":475:669  function Divide(uint a, uint b) public returns (uint){\r... */\n    tag_19:\n        /* \"calc.sol\":523:527  uint */\n      0x0\n        /* \"calc.sol\":552:553  0 */\n      dup1\n        /* \"calc.sol\":548:549  b */\n      dup3\n        /* \"calc.sol\":548:553  b > 0 */\n      gt\n        /* \"calc.sol\":539:606  require (b > 0, \"The second parameter should be greater than zero\") */\n      iszero\n      iszero\n      tag_30\n      jumpi\n      mload(0x40)\n      0x8c379a000000000000000000000000000000000000000000000000000000000\n      dup2\n      mstore\n      0x4\n      add\n      dup1\n      dup1\n      0x20\n      add\n      dup3\n      dup2\n      sub\n      dup3\n      mstore\n      0x30\n      dup2\n      mstore\n      0x20\n      add\n      dup1\n      0x546865207365636f6e6420706172616d657465722073686f756c642062652067\n      dup2\n      mstore\n      0x20\n      add\n      0x726561746572207468616e207a65726f00000000000000000000000000000000\n      dup2\n      mstore\n      pop\n      0x40\n      add\n      swap2\n      pop\n      pop\n      mload(0x40)\n      dup1\n      swap2\n      sub\n      swap1\n      revert\n    tag_30:\n        /* \"calc.sol\":633:634  b */\n      dup2\n        /* \"calc.sol\":629:630  a */\n      dup4\n        /* \"calc.sol\":629:634  a / b */\n      dup2\n      iszero\n      iszero\n      tag_31\n      jumpi\n      invalid\n    tag_31:\n      div\n        /* \"calc.sol\":617:626  lastvalue */\n      0x0\n        /* \"calc.sol\":617:634  lastvalue = a / b */\n      dup2\n      swap1\n      sstore\n      pop\n        /* \"calc.sol\":652:661  lastvalue */\n      sload(0x0)\n        /* \"calc.sol\":645:661  return lastvalue */\n      swap1\n      pop\n        /* \"calc.sol\":475:669  function Divide(uint a, uint b) public returns (uint){\r... */\n      swap3\n      swap2\n      pop\n      pop\n      jump\t// out\n        /* \"calc.sol\":804:895  function LastOperation() public constant returns (uint) {\r... */\n    tag_22:\n        /* \"calc.sol\":854:858  uint */\n      0x0\n        /* \"calc.sol\":878:887  lastvalue */\n      dup1\n      sload\n        /* \"calc.sol\":871:887  return lastvalue */\n      swap1\n      pop\n        /* \"calc.sol\":804:895  function LastOperation() public constant returns (uint) {\r... */\n      swap1\n      jump\t// out\n        /* \"calc.sol\":349:467  function Multiply(uint a, uint b) public returns (uint){\r... */\n    tag_25:\n        /* \"calc.sol\":399:403  uint */\n      0x0\n        /* \"calc.sol\":431:432  b */\n      dup2\n        /* \"calc.sol\":427:428  a */\n      dup4\n        /* \"calc.sol\":427:432  a * b */\n      mul\n        /* \"calc.sol\":415:424  lastvalue */\n      0x0\n        /* \"calc.sol\":415:432  lastvalue = a * b */\n      dup2\n      swap1\n      sstore\n      pop\n        /* \"calc.sol\":450:459  lastvalue */\n      sload(0x0)\n        /* \"calc.sol\":443:459  return lastvalue */\n      swap1\n      pop\n        /* \"calc.sol\":349:467  function Multiply(uint a, uint b) public returns (uint){\r... */\n      swap3\n      swap2\n      pop\n      pop\n      jump\t// out\n\n    auxdata: 0xa165627a7a72305820f4688111c8b4d590116ac37e5d6439e3230f3fcd790f4d250df252d10ca6e5a70029\n}\n",
				"bytecode": {
					"linkReferences": {},
					"object": "60806040526000805534801561001457600080fd5b50610368806100246000396000f300608060405260043610610078576000357c0100000000000000000000000000000000000000000000000000000000900463ffffffff1680632e7c409b1461007d5780637afbe4f1146100c8578063a0aaf05e14610113578063b048546f1461015e578063d3507d71146101a9578063f8eac151146101d4575b600080fd5b34801561008957600080fd5b506100b2600480360381019080803590602001909291908035906020019092919050505061021f565b6040518082815260200191505060405180910390f35b3480156100d457600080fd5b506100fd6004803603810190808035906020019092919080359060200190929190505050610235565b6040518082815260200191505060405180910390f35b34801561011f57600080fd5b50610148600480360381019080803590602001909291908035906020019092919050505061024b565b6040518082815260200191505060405180910390f35b34801561016a57600080fd5b506101936004803603810190808035906020019092919080359060200190929190505050610261565b6040518082815260200191505060405180910390f35b3480156101b557600080fd5b506101be61031d565b6040518082815260200191505060405180910390f35b3480156101e057600080fd5b506102096004803603810190808035906020019092919080359060200190929190505050610326565b6040518082815260200191505060405180910390f35b6000818303600081905550600054905092915050565b6000818301600081905550600054905092915050565b600081830a600081905550600054905092915050565b60008082111515610300576040517f08c379a00000000000000000000000000000000000000000000000000000000081526004018080602001828103825260308152602001807f546865207365636f6e6420706172616d657465722073686f756c64206265206781526020017f726561746572207468616e207a65726f0000000000000000000000000000000081525060400191505060405180910390fd5b818381151561030b57fe5b04600081905550600054905092915050565b60008054905090565b60008183026000819055506000549050929150505600a165627a7a72305820f4688111c8b4d590116ac37e5d6439e3230f3fcd790f4d250df252d10ca6e5a70029",
					"opcodes": "PUSH1 0x80 PUSH1 0x40 MSTORE PUSH1 0x0 DUP1 SSTORE CALLVALUE DUP1 ISZERO PUSH2 0x14 JUMPI PUSH1 0x0 DUP1 REVERT JUMPDEST POP PUSH2 0x368 DUP1 PUSH2 0x24 PUSH1 0x0 CODECOPY PUSH1 0x0 RETURN STOP PUSH1 0x80 PUSH1 0x40 MSTORE PUSH1 0x4 CALLDATASIZE LT PUSH2 0x78 JUMPI PUSH1 0x0 CALLDATALOAD PUSH29 0x100000000000000000000000000000000000000000000000000000000 SWAP1 DIV PUSH4 0xFFFFFFFF AND DUP1 PUSH4 0x2E7C409B EQ PUSH2 0x7D JUMPI DUP1 PUSH4 0x7AFBE4F1 EQ PUSH2 0xC8 JUMPI DUP1 PUSH4 0xA0AAF05E EQ PUSH2 0x113 JUMPI DUP1 PUSH4 0xB048546F EQ PUSH2 0x15E JUMPI DUP1 PUSH4 0xD3507D71 EQ PUSH2 0x1A9 JUMPI DUP1 PUSH4 0xF8EAC151 EQ PUSH2 0x1D4 JUMPI JUMPDEST PUSH1 0x0 DUP1 REVERT JUMPDEST CALLVALUE DUP1 ISZERO PUSH2 0x89 JUMPI PUSH1 0x0 DUP1 REVERT JUMPDEST POP PUSH2 0xB2 PUSH1 0x4 DUP1 CALLDATASIZE SUB DUP2 ADD SWAP1 DUP1 DUP1 CALLDATALOAD SWAP1 PUSH1 0x20 ADD SWAP1 SWAP3 SWAP2 SWAP1 DUP1 CALLDATALOAD SWAP1 PUSH1 0x20 ADD SWAP1 SWAP3 SWAP2 SWAP1 POP POP POP PUSH2 0x21F JUMP JUMPDEST PUSH1 0x40 MLOAD DUP1 DUP3 DUP2 MSTORE PUSH1 0x20 ADD SWAP2 POP POP PUSH1 0x40 MLOAD DUP1 SWAP2 SUB SWAP1 RETURN JUMPDEST CALLVALUE DUP1 ISZERO PUSH2 0xD4 JUMPI PUSH1 0x0 DUP1 REVERT JUMPDEST POP PUSH2 0xFD PUSH1 0x4 DUP1 CALLDATASIZE SUB DUP2 ADD SWAP1 DUP1 DUP1 CALLDATALOAD SWAP1 PUSH1 0x20 ADD SWAP1 SWAP3 SWAP2 SWAP1 DUP1 CALLDATALOAD SWAP1 PUSH1 0x20 ADD SWAP1 SWAP3 SWAP2 SWAP1 POP POP POP PUSH2 0x235 JUMP JUMPDEST PUSH1 0x40 MLOAD DUP1 DUP3 DUP2 MSTORE PUSH1 0x20 ADD SWAP2 POP POP PUSH1 0x40 MLOAD DUP1 SWAP2 SUB SWAP1 RETURN JUMPDEST CALLVALUE DUP1 ISZERO PUSH2 0x11F JUMPI PUSH1 0x0 DUP1 REVERT JUMPDEST POP PUSH2 0x148 PUSH1 0x4 DUP1 CALLDATASIZE SUB DUP2 ADD SWAP1 DUP1 DUP1 CALLDATALOAD SWAP1 PUSH1 0x20 ADD SWAP1 SWAP3 SWAP2 SWAP1 DUP1 CALLDATALOAD SWAP1 PUSH1 0x20 ADD SWAP1 SWAP3 SWAP2 SWAP1 POP POP POP PUSH2 0x24B JUMP JUMPDEST PUSH1 0x40 MLOAD DUP1 DUP3 DUP2 MSTORE PUSH1 0x20 ADD SWAP2 POP POP PUSH1 0x40 MLOAD DUP1 SWAP2 SUB SWAP1 RETURN JUMPDEST CALLVALUE DUP1 ISZERO PUSH2 0x16A JUMPI PUSH1 0x0 DUP1 REVERT JUMPDEST POP PUSH2 0x193 PUSH1 0x4 DUP1 CALLDATASIZE SUB DUP2 ADD SWAP1 DUP1 DUP1 CALLDATALOAD SWAP1 PUSH1 0x20 ADD SWAP1 SWAP3 SWAP2 SWAP1 DUP1 CALLDATALOAD SWAP1 PUSH1 0x20 ADD SWAP1 SWAP3 SWAP2 SWAP1 POP POP POP PUSH2 0x261 JUMP JUMPDEST PUSH1 0x40 MLOAD DUP1 DUP3 DUP2 MSTORE PUSH1 0x20 ADD SWAP2 POP POP PUSH1 0x40 MLOAD DUP1 SWAP2 SUB SWAP1 RETURN JUMPDEST CALLVALUE DUP1 ISZERO PUSH2 0x1B5 JUMPI PUSH1 0x0 DUP1 REVERT JUMPDEST POP PUSH2 0x1BE PUSH2 0x31D JUMP JUMPDEST PUSH1 0x40 MLOAD DUP1 DUP3 DUP2 MSTORE PUSH1 0x20 ADD SWAP2 POP POP PUSH1 0x40 MLOAD DUP1 SWAP2 SUB SWAP1 RETURN JUMPDEST CALLVALUE DUP1 ISZERO PUSH2 0x1E0 JUMPI PUSH1 0x0 DUP1 REVERT JUMPDEST POP PUSH2 0x209 PUSH1 0x4 DUP1 CALLDATASIZE SUB DUP2 ADD SWAP1 DUP1 DUP1 CALLDATALOAD SWAP1 PUSH1 0x20 ADD SWAP1 SWAP3 SWAP2 SWAP1 DUP1 CALLDATALOAD SWAP1 PUSH1 0x20 ADD SWAP1 SWAP3 SWAP2 SWAP1 POP POP POP PUSH2 0x326 JUMP JUMPDEST PUSH1 0x40 MLOAD DUP1 DUP3 DUP2 MSTORE PUSH1 0x20 ADD SWAP2 POP POP PUSH1 0x40 MLOAD DUP1 SWAP2 SUB SWAP1 RETURN JUMPDEST PUSH1 0x0 DUP2 DUP4 SUB PUSH1 0x0 DUP2 SWAP1 SSTORE POP PUSH1 0x0 SLOAD SWAP1 POP SWAP3 SWAP2 POP POP JUMP JUMPDEST PUSH1 0x0 DUP2 DUP4 ADD PUSH1 0x0 DUP2 SWAP1 SSTORE POP PUSH1 0x0 SLOAD SWAP1 POP SWAP3 SWAP2 POP POP JUMP JUMPDEST PUSH1 0x0 DUP2 DUP4 EXP PUSH1 0x0 DUP2 SWAP1 SSTORE POP PUSH1 0x0 SLOAD SWAP1 POP SWAP3 SWAP2 POP POP JUMP JUMPDEST PUSH1 0x0 DUP1 DUP3 GT ISZERO ISZERO PUSH2 0x300 JUMPI PUSH1 0x40 MLOAD PUSH32 0x8C379A000000000000000000000000000000000000000000000000000000000 DUP2 MSTORE PUSH1 0x4 ADD DUP1 DUP1 PUSH1 0x20 ADD DUP3 DUP2 SUB DUP3 MSTORE PUSH1 0x30 DUP2 MSTORE PUSH1 0x20 ADD DUP1 PUSH32 0x546865207365636F6E6420706172616D657465722073686F756C642062652067 DUP2 MSTORE PUSH1 0x20 ADD PUSH32 0x726561746572207468616E207A65726F00000000000000000000000000000000 DUP2 MSTORE POP PUSH1 0x40 ADD SWAP2 POP POP PUSH1 0x40 MLOAD DUP1 SWAP2 SUB SWAP1 REVERT JUMPDEST DUP2 DUP4 DUP2 ISZERO ISZERO PUSH2 0x30B JUMPI INVALID JUMPDEST DIV PUSH1 0x0 DUP2 SWAP1 SSTORE POP PUSH1 0x0 SLOAD SWAP1 POP SWAP3 SWAP2 POP POP JUMP JUMPDEST PUSH1 0x0 DUP1 SLOAD SWAP1 POP SWAP1 JUMP JUMPDEST PUSH1 0x0 DUP2 DUP4 MUL PUSH1 0x0 DUP2 SWAP1 SSTORE POP PUSH1 0x0 SLOAD SWAP1 POP SWAP3 SWAP2 POP POP JUMP STOP LOG1 PUSH6 0x627A7A723058 KECCAK256 DELEGATECALL PUSH9 0x8111C8B4D590116AC3 PUSH31 0x5D6439E3230F3FCD790F4D250DF252D10CA6E5A70029000000000000000000 "
				},
				"gasEstimates": {
					"creation": {
						"codeDepositCost": "174400",
						"executionCost": "5226",
						"totalCost": "179626"
					},
					"external": {
						"Add(uint256,uint256)": "20534",
						"Divide(uint256,uint256)": "20632",
						"Exponent(uint256,uint256)": "22163",
						"LastOperation()": "490",
						"Multiply(uint256,uint256)": "20624",
						"Subtract(uint256,uint256)": "20512"
					}
				},
				"methodIdentifiers": {
					"Add(uint256,uint256)": "7afbe4f1",
					"Divide(uint256,uint256)": "b048546f",
					"Exponent(uint256,uint256)": "a0aaf05e",
					"LastOperation()": "d3507d71",
					"Multiply(uint256,uint256)": "f8eac151",
					"Subtract(uint256,uint256)": "2e7c409b"
				}
			},
			"userdoc": {
				"methods": {}
			}
		}
	}
}